:100000000C942A000C9453170C9447000C9447004E
:100010000C9447000C9447000C9447000C94470044
:100020000C9447000C9447000C9447000C94470034
:100030000C9447000C9447000C9447000C94470024
:100040000C9447000C9447000C9447000C94470014
:100050000C94470011241FBECFE5D4E0DEBFCDBF16
:1000600011E0A0E6B0E0E8ECFEE302C005900D92DE
:10007000A037B107D9F721E0A0E7B1E001C01D9298
:10008000AC38B207E1F70E94ED1A0C94621F0C9491
:1000900000000F931F93CF93DF93CDB7DEB700E738
:1000A00011E02091D0003091D1004091D2005091C8
:1000B000D3006091D4007091D5008091D6009091CA
:1000C000D7000E944F16000000E711E02091D000F9
:1000D0003091D1004091D2005091D3006091D40072
:1000E0007091D5008091D6009091D7000E944F1654
:1000F000882351F380917001833221F40E94C7025A
:100100000E94EA0328E04091B6005091B700609148
:10011000B8007091B9008091BA009091BB000E9424
:100120001D1021E04091B6005091B7006091B800D9
:100130007091B9008091BA009091BB000E941D108F
:100140000000DF91CF911F910F9108950F93CF93EE
:10015000DF93CDB7DEB7AD970FB6F894DEBF0FBE15
:10016000CDBF19821A8204C221E04091B60050919D
:10017000B7006091B8007091B9008091BA00909179
:10018000BB000E941D100E9431051B820E940B05BE
:100190008B838B81813009F095C002E021E0409192
:1001A000B6005091B7006091B8007091B90080918D
:1001B000BA009091BB000E949A122DED30E0409160
:1001C000B6005091B7006091B8007091B90080916D
:1001D000BA009091BB000E94B91080E090E0A8E4C2
:1001E000B4E48C839D83AE83BF8320E030E04AE794
:1001F00053E46C817D818E819F810E94161CDC01FD
:10020000CB0188879987AA87BB8720E030E040E848
:100210005FE3688579858A859B850E94F61A882325
:100220002CF481E090E09D878C873FC020E03FEF79
:100230004FE757E4688579858A859B850E94111C64
:1002400018164CF520E030E040E251E46C817D81ED
:100250008E819F810E94161CDC01CB01BC01CD0167
:100260000E946D1BDC01CB019D878C870FC089E14B
:1002700090E09F878E878E859F850197F1F79F87F6
:100280008E878C859D8501979D878C878C859D8524
:10029000892B69F714C0688579858A859B850E94BA
:1002A0006D1BDC01CB019D878C878C859D85998B8F
:1002B000888B888999890197F1F7998B888B81E0E0
:1002C000898353C12CE04091B6005091B7006091F2
:1002D000B8007091B9008091BA009091BB000E9463
:1002E0001D1002E021E04091B6005091B7006091EE
:1002F000B8007091B9008091BA009091BB000E9443
:100300009A1220EF30E04091B6005091B700609112
:10031000B8007091B9008091BA009091BB000E9422
:10032000B91080E090E0A8E4B4E488A399A3AAA35C
:10033000BBA320E030E04AE753E468A179A18AA199
:100340009BA10E94161CDC01CB018CA39DA3AEA334
:10035000BFA320E030E040E85FE36CA17DA18EA167
:100360009FA10E94F61A88232CF481E090E099A7BF
:1003700088A73FC020E03FEF4FE757E46CA17DA185
:100380008EA19FA10E94111C18164CF520E030E0B0
:1003900040E251E468A179A18AA19BA10E94161CA8
:1003A000DC01CB01BC01CD010E946D1BDC01CB0146
:1003B00099A788A70FC089E190E09BA78AA78AA583
:1003C0009BA50197F1F79BA78AA788A599A50197F7
:1003D00099A788A788A599A5892B69F714C06CA14E
:1003E0007DA18EA19FA10E946D1BDC01CB0199A76D
:1003F00088A788A599A59DA78CA78CA59DA50197E1
:10040000F1F79DA78CA721E04091B6005091B7006D
:100410006091B8007091B9008091BA009091BB00D2
:100420000E941D1002E021E04091B6005091B700FB
:100430006091B8007091B9008091BA009091BB00B2
:100440000E949A1221E031E04091B6005091B7002D
:100450006091B8007091B9008091BA009091BB0092
:100460000E94B91080E090E0A8E4B4E48A8B9B8BF2
:10047000AC8BBD8B20E030E04AE753E46A897B898E
:100480008C899D890E94161CDC01CB018E8B9F8B71
:10049000A88FB98F20E030E040E85FE36E897F8964
:1004A000888D998D0E94F61A88232CF481E090E0C3
:1004B0009B8F8A8F3FC020E03FEF4FE757E46E8964
:1004C0007F89888D998D0E94111C18164CF520E0AB
:1004D00030E040E251E46A897B898C899D890E94E1
:1004E000161CDC01CB01BC01CD010E946D1BDC019F
:1004F000CB019B8F8A8F0FC089E190E09D8F8C8FFD
:100500008C8D9D8D0197F1F79D8F8C8F8A8D9B8DA2
:1005100001979B8F8A8F8A8D9B8D892B69F714C0D9
:100520006E897F89888D998D0E946D1BDC01CB01BE
:100530009B8F8A8F8A8D9B8D9F8F8E8F8E8D9F8DA7
:100540000197F1F79F8F8E8F28E04091B600509170
:10055000B7006091B8007091B9008091BA00909195
:10056000BB000E941D10198207C08A818F5F8A8399
:100570008A81833008F4F8CD8981AD960FB6F8945E
:10058000DEBF0FBECDBFDF91CF910F9108950F93C6
:10059000CF93DF93CDB7DEB7E6970FB6F894DEBF03
:1005A0000FBECDBF8AE0E3E1F1E0DE011F960190CE
:1005B0000D928A95E1F72AE0CE014996FC01322F8F
:1005C00011923A95E9F784E1E7E2F1E0DE019396D2
:1005D00001900D928A95E1F720E630E04091B60057
:1005E0005091B7006091B8007091B9008091BA0045
:1005F0009091BB000E94B91007E021E04091B60045
:100600005091B7006091B8007091B9008091BA0024
:100610009091BB000E949A12CE010F969C014091CE
:10062000B6005091B7006091B8007091B900809108
:10063000BA009091BB000E94B91001E022E0409105
:10064000B6005091B7006091B8007091B9008091E8
:10065000BA009091BB000E949A12CE0183969C0131
:100660004091B6005091B7006091B8007091B90008
:100670008091BA009091BB000E94B91001E023E084
:100680004091B6005091B7006091B8007091B900E8
:100690008091BA009091BB000E949A1220E630E04F
:1006A0004091B6005091B7006091B8007091B900C8
:1006B0008091BA009091BB000E94B91080E090E850
:1006C000ABEBB4E489839A83AB83BC8320E030E056
:1006D0004AE753E469817A818B819C810E94161CD0
:1006E000DC01CB018D839E83AF83B88720E030E0AF
:1006F00040E85FE36D817E818F8198850E94F61AC4
:1007000088232CF481E090E09A8789873FC020E01D
:100710003FEF4FE757E46D817E818F8198850E947E
:10072000111C18164CF520E030E040E251E46981DC
:100730007A818B819C810E94161CDC01CB01BC015B
:10074000CD010E946D1BDC01CB019A8789870FC008
:1007500089E190E09C878B878B859C850197F1F7D9
:100760009C878B8789859A8501979A878987898550
:100770009A85892B69F714C06D817E818F81988558
:100780000E946D1BDC01CB019A87898789859A8538
:100790009E878D878D859E850197F1F79E878D8732
:1007A00021E04091B6005091B7006091B80070917F
:1007B000B9008091BA009091BB000E941D1000000A
:1007C000E6960FB6F894DEBF0FBECDBFDF91CF9196
:1007D0000F910895EF920F931F93CF93DF93CDB7AF
:1007E000DEB72F970FB6F894DEBF0FBECDBF1982CC
:1007F00006E021E04091B6005091B7006091B8004A
:100800007091B9008091BA009091BB000E949A1239
:100810002BE331E04091B6005091B7006091B800F1
:100820007091B9008091BA009091BB000E94B910FC
:100830002CE04091B6005091B7006091B8007091E3
:10084000B9008091BA009091BB000E941D1000E792
:1008500011E02091D0003091D1004091D200509110
:10086000D3006091D4007091D5008091D600909112
:10087000D7000E944F16000000E711E02091D00041
:100880003091D1004091D2005091D3006091D400BA
:100890007091D5008091D6009091D7000E944F169C
:1008A000882351F389818F5F89838091700183321E
:1008B00009F4A3C080917001E82E098122E04091E3
:1008C000B6005091B7006091B8007091B900809166
:1008D000BA009091BB000E94821180E090E0AAE7EC
:1008E000B3E48A839B83AC83BD8320E030E04AE796
:1008F00053E46A817B818C819D810E94161CDC01FE
:10090000CB018E839F83A887B98720E030E040E841
:100910005FE36E817F81888599850E94F61A88231E
:100920002CF481E090E09B878A873FC020E03FEF76
:100930004FE757E46E817F81888599850E94111C5D
:1009400018164CF520E030E040E251E46A817B81EA
:100950008C819D810E94161CDC01CB01BC01CD0164
:100960000E946D1BDC01CB019B878A870FC089E148
:1009700090E09D878C878C859D850197F1F79D87F9
:100980008C878A859B8501979B878A878A859B852B
:10099000892B69F714C06E817F81888599850E94B3
:1009A0006D1BDC01CB019B878A878A859B859F878E
:1009B0008E878E859F850197F1F79F878E870F2EF3
:1009C000FAE2EF2EF02D098122E04091B60050911D
:1009D000B7006091B8007091B9008091BA00909111
:1009E000BB000E9482118981882F90E020917001C4
:1009F0008F589E4FFC0120831BCF000000002F96D4
:100A00000FB6F894DEBF0FBECDBFDF91CF911F911F
:100A10000F91EF900895CF93DF9300D0CDB7DEB75D
:100A200019821A8215C08A81882F90E086589E4FBD
:100A3000FC0120818A81882F90E08F589E4FFC0115
:100A40008081281711F081E089838A818F5F8A83F2
:100A50008A81893040F389810F900F90DF91CF9187
:100A60000895EF920F931F93CF93DF93CDB7DEB727
:100A70006D970FB6F894DEBF0FBECDBF1092830105
:100A800019822CE04091B6005091B7006091B800F7
:100A90007091B9008091BA009091BB000E941D1026
:100AA00004E021E04091B6005091B7006091B80099
:100AB0007091B9008091BA009091BB000E949A1287
:100AC00028E431E04091B6005091B7006091B80041
:100AD0007091B9008091BA009091BB000E94B9104A
:100AE00000E711E02091D0003091D1004091D20078
:100AF0005091D3006091D4007091D5008091D600C0
:100B00009091D7000E944F16000000E711E020915D
:100B1000D0003091D1004091D2005091D30060912B
:100B2000D4007091D5008091D6009091D7000E949A
:100B30004F16882351F389818F5F898380917001DB
:100B4000833209F073C080E090E0AAE7B3E48A83BF
:100B50009B83AC83BD8320E030E04AE753E46A81A5
:100B60007B818C819D810E94161CDC01CB018E83D0
:100B70009F83A887B98720E030E040E85FE36E817B
:100B80007F81888599850E94F61A88232CF481E05C
:100B900090E09B878A873FC020E03FEF4FE757E414
:100BA0006E817F81888599850E94111C18164CF5ED
:100BB00020E030E040E251E46A817B818C819D81BC
:100BC0000E94161CDC01CB01BC01CD010E946D1BF3
:100BD000DC01CB019B878A870FC089E190E09D876C
:100BE0008C878C859D850197F1F79D878C878A85F9
:100BF0009B8501979B878A878A859B85892B69F7C7
:100C0000B8C06E817F81888599850E946D1BDC014B
:100C1000CB019B878A878A859B859F878E878E8558
:100C20009F850197F1F79F878E87A3C08091700100
:100C3000E82E098122E04091B6005091B700609102
:100C4000B8007091B9008091BA009091BB000E94E9
:100C5000821180E090E0A8ECB2E4888B998BAA8B9B
:100C6000BB8B20E030E04AE753E4688979898A89C0
:100C70009B890E94161CDC01CB018C8B9D8BAE8B5B
:100C8000BF8B20E030E040E85FE36C897D898E898E
:100C90009F890E94F61A88232CF481E090E0998FB6
:100CA000888F3FC020E03FEF4FE757E46C897D8994
:100CB0008E899F890E94111C18164CF520E030E0A7
:100CC00040E251E4688979898A899B890E94161CCF
:100CD000DC01CB01BC01CD010E946D1BDC01CB010D
:100CE000998F888F0FC089E190E09B8F8A8F8A8DC2
:100CF0009B8D0197F1F79B8F8A8F888D998D019736
:100D0000998F888F888D998D892B69F714C06C898C
:100D10007D898E899F890E946D1BDC01CB01998F93
:100D2000888F888D998D9D8F8C8F8C8D9D8D01974F
:100D3000F1F79D8F8C8F0F2EFAE2EF2EF02D0981A7
:100D400022E04091B6005091B7006091B8007091D8
:100D5000B9008091BA009091BB000E9482118981F4
:100D6000882F90E02091700186589E4FFC012083CF
:100D7000B7CE21E04091B6005091B7006091B80025
:100D80007091B9008091BA009091BB000E941D1033
:100D900000006D960FB6F894DEBF0FBECDBFDF9199
:100DA000CF911F910F91EF900895CF93DF931F92F2
:100DB000CDB7DEB789838981882F90E0292F33272B
:100DC00027FD3A9580E490E0FC01208389E290E0E1
:100DD0002981FC01208380E490E0FC01208180E4F3
:100DE00090E02F7BFC01208380E490E0FC012081D7
:100DF00080E490E0277FFC01208380E490E0FC0108
:100E0000208180E490E02260FC01208380E490E077
:100E1000FC01208180E490E02460FC01208380E4D8
:100E200090E0FC01208180E490E02B7FFC01208396
:100E30008AE290E0FC0120818AE290E02860FC01D7
:100E400020838AE290E0FC0120818AE290E0206128
:100E5000FC01208300000F90DF91CF910895CF9384
:100E6000DF9300D0CDB7DEB79A83898300008BE291
:100E700090E0FC018081829586958770882F90E0B4
:100E800081709927892B99F38CE290E02981FC01EC
:100E9000208300000F900F90DF91CF910895CF93A2
:100EA000DF9300D01F92CDB7DEB79B838A83198270
:100EB0008BE290E0FC018081881F8827881F882FA3
:100EC00090E081709927892B59F08CE290E0FC0129
:100ED00020818A819B81FC01208381E0898301C07C
:100EE000198289810F900F900F90DF91CF91089513
:100EF000CF93DF93CDB7DEB700008BE290E0FC012B
:100F00008081881F8827881F882F90E0817099270B
:100F1000892B99F38CE290E0FC018081DF91CF91E5
:100F20000895CF93DF93CDB7DEB783E590E0FC0162
:100F3000208183E590E02F7BFC01208383E590E016
:100F4000FC01208183E590E0277FFC0120830000E5
:100F5000DF91CF910895CF93DF93CDB7DEB783E5CF
:100F600090E0FC01208183E590E02260FC01208379
:100F70000000DF91CF910895CF93DF93CDB7DEB717
:100F800083E590E0FC01208183E590E0287FFC016F
:100F900020830000DF91CF910895CF93DF931F92BC
:100FA000CDB7DEB7898382E590E02981FC012083FB
:100FB00000000F90DF91CF910895CF93DF931F92A0
:100FC000CDB7DEB789838CE590E02981FC012083D1
:100FD00000000F90DF91CF910895CF93DF93CDB7AD
:100FE000DEB78FE590E0FC0120818FE590E020687E
:100FF000FC01208389E590E0FC01208189E590E0F7
:101000002160FC0120830000DF91CF910895CF93F0
:10101000DF93CDB7DEB789E590E0FC01208189E55B
:1010200090E02E7FFC0120830000DF91CF91089596
:10103000CF93DF93CDB7DEB78FE590E0FC01208141
:101040008FE590E02068FC01208389E590E0FC01B9
:10105000208189E590E02260FC0120830000DF917F
:10106000CF910895CF93DF93CDB7DEB789E590E0B8
:10107000FC01208189E590E02D7FFC0120830000A8
:10108000DF91CF910895CF93DF93CDB7DEB78DE297
:1010900090E0FC0120818DE290E02064FC0120833F
:1010A0008DE290E0FC0120818DE290E02062FC0165
:1010B00020838DE290E0FC0120818DE290E02061B0
:1010C000FC0120838DE290E0FC0120818DE290E024
:1010D0002860FC0120838DE290E0FC0120818DE2FC
:1010E00090E02460FC0120830000DF91CF910895FF
:1010F000CF93DF93CDB7DEB78FE590E0FC01208181
:101100008FE590E02068FC0120838DE290E0FC01F7
:1011100020818DE290E02068FC0120830000DF91B7
:10112000CF910895CF93DF93CDB7DEB78DE290E0F6
:10113000FC0120818DE290E02F77FC0120830000EC
:10114000DF91CF910895CF93DF9300D0CDB7DEB775
:1011500089836A838FE590E0FC0120818FE590E030
:101160002068FC0120838981882F90E081309105DF
:10117000B9F08230910529F1892B09F033C08A81B9
:101180000E94F8088BE590E0FC0120818BE590E05F
:101190002064FC01208360E08AE10E94FC0922C0F7
:1011A0008A810E9461098BE590E0FC0120818BE53A
:1011B00090E02068FC01208360E08BE10E94FC0944
:1011C00011C08A810E94CA098BE590E0FC01208150
:1011D0008BE590E02062FC01208360E08AE00E94C1
:1011E000FC09000000000F900F90DF91CF9108954F
:1011F000CF93DF931F92CDB7DEB789838981882F84
:1012000090E081309105F9F0823091051CF4892B32
:1012100039F052C08230910549F10397D1F14CC0A9
:1012200085E590E0FC01208185E590E02D7FFC01C3
:10123000208385E590E0FC01208185E590E02E7F0C
:10124000FC01208339C085E590E0FC01208185E523
:1012500090E02D7FFC01208385E590E0FC0120815A
:1012600085E590E02160FC01208326C085E590E0C3
:10127000FC01208185E590E02260FC01208385E56A
:1012800090E0FC01208185E590E02E7FFC01208329
:1012900013C085E590E0FC01208185E590E02260A7
:1012A000FC01208385E590E0FC01208185E590E04C
:1012B0002160FC012083000000000F90DF91CF919E
:1012C0000895CF93DF931F92CDB7DEB789838981CD
:1012D000882F90E081309105F9F0823091051CF45F
:1012E000892B39F052C08230910549F10397D1F131
:1012F0004CC085E590E0FC01208185E590E0277FEA
:10130000FC01208385E590E0FC01208185E590E0EB
:101310002B7FFC01208339C085E590E0FC01208112
:1013200085E590E0277FFC01208385E590E0FC01C6
:10133000208185E590E02460FC01208326C085E5BE
:1013400090E0FC01208185E590E02860FC0120838D
:1013500085E590E0FC01208185E590E02B7FFC0194
:10136000208313C085E590E0FC01208185E590E0B5
:101370002860FC01208385E590E0FC01208185E563
:1013800090E02460FC012083000000000F90DF91BA
:10139000CF910895CF93DF931F92CDB7DEB78983A6
:1013A0008981882F90E08230910519F0039759F0D8
:1013B00014C085E590E0FC01208185E590E02F7B5D
:1013C000FC01208314C085E590E0FC01208185E5C7
:1013D00090E02064FC0120830AC084E590E0FC01D9
:1013E000208184E590E02F7BFC0120830000000039
:1013F0000F90DF91CF910895CF93DF9300D0CDB7B9
:10140000DEB789836A838A81882F90E0009719F07C
:10141000019789F15FC08981869586958695882F89
:1014200090E0880F991F8C589F4FFC01808191811B
:10143000FC018081482F8981882F90E09C012770D2
:10144000332781E090E002C0880F991F2A95E2F7C8
:101450008095242F28238981869586958695882FC7
:1014600090E0880F991F8C589F4FFC0180819181DB
:10147000FC0120832FC08981869586958695882FCB
:1014800090E0880F991F8C589F4FFC0180819181BB
:10149000FC018081482F8981882F90E09C01277072
:1014A000332781E090E002C0880F991F2A95E2F768
:1014B000242F282B8981869586958695882F90E004
:1014C000880F991F8C589F4FFC0180819181FC01EE
:1014D0002083000000000F900F90DF91CF910895BE
:1014E000CF93DF9300D0CDB7DEB789836A838A813B
:1014F000882F90E081309105B9F18230910509F48F
:1015000062C0892B09F08EC0898186958695869563
:10151000882F90E0880F991F86579F4FFC0180818C
:101520009181FC018081482F8981882F90E09C0166
:101530002770332781E090E002C0880F991F2A9519
:10154000E2F78095242F28238981869586958695B4
:10155000882F90E0880F991F86579F4FFC0180814C
:101560009181FC0120835EC0898186958695869550
:10157000882F90E0880F991F86579F4FFC0180812C
:101580009181FC018081482F8981882F90E09C0106
:101590002770332781E090E002C0880F991F2A95B9
:1015A000E2F7242F282B8981869586958695882FAA
:1015B00090E0880F991F86579F4FFC018081918191
:1015C000FC0120832FC08981869586958695882F7A
:1015D00090E0880F991F86579F4FFC018081918171
:1015E000FC018081482F8981882F90E09C01277021
:1015F000332781E090E002C0880F991F2A95E2F717
:10160000242F28278981869586958695882F90E0B6
:10161000880F991F86579F4FFC0180819181FC01A3
:101620002083000000000F900F90DF91CF9108956C
:10163000CF93DF9300D000D01F92CDB7DEB79B834E
:101640008A836C834D8319829BC08D81882F90E0A3
:10165000009721F0019709F449C08FC08981882F34
:1016600090E02A813B81820F931FFC018081869547
:1016700086958695882F90E0880F991F8C589F4FEC
:10168000FC0180819181FC018081482F8981882F14
:1016900090E02A813B81820F931FFC018081882F7B
:1016A00090E09C012770332781E090E002C0880F12
:1016B000991F2A95E2F7809548238981882F90E029
:1016C0002A813B81820F931FFC018081869586953C
:1016D0008695882F90E0880F991F8C589F4FFC01AA
:1016E00080819181242FFC01208347C08981882F2C
:1016F00090E02A813B81820F931FFC0180818695B7
:1017000086958695882F90E0880F991F8C589F4F5B
:10171000FC0180819181FC018081482F8981882F83
:1017200090E02A813B81820F931FFC018081882FEA
:1017300090E09C012770332781E090E002C0880F81
:10174000991F2A95E2F7482B8981882F90E02A81FA
:101750003B81820F931FFC0180818695869586953B
:10176000882F90E0880F991F8C589F4FFC01808133
:101770009181242FFC012083000089818F5F898360
:1017800099818C81981708F460CF00000F900F901A
:101790000F900F900F90DF91CF910895CF93DF932B
:1017A00000D000D01F92CDB7DEB79B838A836C83B5
:1017B0004D831982E7C08D81882F90E0813091059B
:1017C00009F44FC08230910509F492C0892B09F0C9
:1017D000D6C08981882F90E02A813B81820F931F98
:1017E000FC018081869586958695882F90E0880FEC
:1017F000991F86579F4FFC0180819181FC01808158
:10180000482F8981882F90E02A813B81820F931F86
:10181000FC018081882F90E09C012770332781E0B4
:1018200090E002C0880F991F2A95E2F7809548231F
:101830008981882F90E02A813B81820F931FFC01D0
:101840008081869586958695882F90E0880F991FD0
:1018500086579F4FFC0180819181242FFC012083BA
:101860008EC08981882F90E02A813B81820F931F4F
:10187000FC018081869586958695882F90E0880F5B
:10188000991F86579F4FFC0180819181FC018081C7
:10189000482F8981882F90E02A813B81820F931FF6
:1018A000FC018081882F90E09C012770332781E024
:1018B00090E002C0880F991F2A95E2F7482B898192
:1018C000882F90E02A813B81820F931FFC01808149
:1018D000869586958695882F90E0880F991F865764
:1018E0009F4FFC0180819181242FFC01208347C000
:1018F0008981882F90E02A813B81820F931FFC0110
:101900008081869586958695882F90E0880F991F0F
:1019100086579F4FFC0180819181FC018081482F77
:101920008981882F90E02A813B81820F931FFC01DF
:101930008081882F90E09C012770332781E090E020
:1019400002C0880F991F2A95E2F748278981882FBE
:1019500090E02A813B81820F931FFC018081869554
:1019600086958695882F90E0880F991F86579F4F00
:10197000FC0180819181242FFC012083000089815A
:101980008F5F898399818C81981708F414CF0000A8
:101990000F900F900F900F900F90DF91CF910895BF
:1019A000CF93DF9300D0CDB7DEB78A8319828A81C7
:1019B000869586958695882F90E0880F991F80568A
:1019C0009F4FFC0180819181FC018081882F90E0F4
:1019D0002A81222F30E02770332702C09595879502
:1019E0002A95E2F78170898389810F900F90DF91AA
:1019F000CF910895CF93DF9300D0CDB7DEB7898321
:101A00006A838981882F90E0880F991F8C589F4F97
:101A1000FC01808191812A81FC01208300000F90CC
:101A20000F90DF91CF910895CF93DF9300D0CDB782
:101A3000DEB789836A838981882F90E0880F991F98
:101A400086579F4FFC01808191812A81FC01208370
:101A500000000F900F90DF91CF910895CF93DF9307
:101A600000D0CDB7DEB78A8319828A81882F90E0B3
:101A7000880F991F80569F4FFC0180819181FC0146
:101A80008081898389810F900F90DF91CF91089594
:101A9000CF93DF93CDB7DEB787E290E0FC012081E2
:101AA00087E290E02F77FC01208387E290E0FC0141
:101AB000208187E290E02064FC01208380E590E0B3
:101AC000FC01208180E590E02F77FC01208380E5F8
:101AD00090E0FC01208180E590E02F7BFC012083D9
:101AE00080E590E0FC01208180E590E02F7DFC0105
:101AF000208386E290E0FC01208186E290E020686D
:101B0000FC01208326E230E086E290E0F9012081AA
:101B1000FC0120830000DF91CF910895CF93DF93E4
:101B200000D01F92CDB7DEB78B831A82198287E26D
:101B300090E0FC01208187E290E0207EFC01208380
:101B400087E290E0FC01308187E290E02B81232B3B
:101B5000FC01208386E290E0FC01208186E290E097
:101B60002064FC012083000086E290E0FC0180817B
:101B70008295869586958370882F90E0817099274D
:101B8000892B91F784E290E0FC018081882F90E01E
:101B90009A83898385E290E0FC018081882F90E020
:101BA000982F88279C0189819A81822B932B9A8375
:101BB000898389819A810F900F900F90DF91CF9147
:101BC0000895CF93DF93CDB7DEB786E290E0FC01B6
:101BD000208186E290E02068FC0120830000DF91F4
:101BE000CF910895CF93DF93CDB7DEB786E290E033
:101BF000FC01208186E290E02F77FC012083000029
:101C0000DF91CF910895CF93DF93CDB7DEB78FE506
:101C100090E0FC0120818FE590E02068FC012083AA
:101C200086E290E0FC01208186E290E02860FC01E1
:101C300020830000DF91CF910895CF93DF93CDB73C
:101C4000DEB786E290E0FC01208186E290E0277F0B
:101C5000FC0120830000DF91CF910895CF93DF93A3
:101C6000CDB7DEB786E290E0FC01208186E290E00D
:101C70002F7EFC0120830000DF91CF910895CF9348
:101C8000DF93CDB7DEB7E1970FB6F894DEBF0FBE96
:101C9000CDBF4CA75DA76EA77FA788AB99AB8CA5DE
:101CA00061E00E94FC098DA561E00E94FC09198297
:101CB00010C08981882F90E09E01225D3F4F820FE6
:101CC000931FFC01808161E00E94FC0989818F5F84
:101CD00089838981843068F380E090E0A0EAB1E4F0
:101CE0008E8F9F8FA8A3B9A320E030E04AE753E48A
:101CF0006E8D7F8D88A199A10E94161CDC01CB01FD
:101D00008AA39BA3ACA3BDA320E030E040E85FE33F
:101D10006AA17BA18CA19DA10E94F61A88232CF4B4
:101D200081E090E09FA38EA33FC020E03FEF4FE70C
:101D300057E46AA17BA18CA19DA10E94111C1816D9
:101D40004CF520E030E040E251E46E8D7F8D88A1BB
:101D500099A10E94161CDC01CB01BC01CD010E949F
:101D60006D1BDC01CB019FA38EA30FC089E190E026
:101D700099A788A788A599A50197F1F799A788A79A
:101D80008EA19FA101979FA38EA38EA19FA1892BB6
:101D900069F714C06AA17BA18CA19DA10E946D1B53
:101DA000DC01CB019FA38EA38EA19FA19BA78AA735
:101DB0008AA59BA50197F1F79BA78AA728E34CA5C5
:101DC0005DA56EA57FA588A999A90E941D1080E038
:101DD00090E0A0EAB0E4888B998BAA8BBB8B20E0C3
:101DE00030E04AE753E4688979898A899B890E94AF
:101DF000161CDC01CB018C8B9D8BAE8BBF8B20E046
:101E000030E040E85FE36C897D898E899F890E947C
:101E1000F61A88232CF481E090E0998F888F3FC0D8
:101E200020E03FEF4FE757E46C897D898E899F89D9
:101E30000E94111C18164CF520E030E040E251E4FD
:101E4000688979898A899B890E94161CDC01CB01EB
:101E5000BC01CD010E946D1BDC01CB01998F888FE5
:101E60000FC089E190E09B8F8A8F8A8D9B8D0197AF
:101E7000F1F79B8F8A8F888D998D0197998F888F25
:101E8000888D998D892B69F714C06C897D898E891D
:101E90009F890E946D1BDC01CB01998F888F888DF3
:101EA000998D9D8F8C8F8C8D9D8D0197F1F79D8FD6
:101EB0008C8F28E34CA55DA56EA57FA588A999A95F
:101EC0000E941D1080E090E0A6E1B3E48A839B832A
:101ED000AC83BD8320E030E04AE753E46A817B8134
:101EE0008C819D810E94161CDC01CB018E839F8317
:101EF000A887B98720E030E040E85FE36E817F810A
:101F0000888599850E94F61A88232CF481E090E058
:101F10009B878A873FC020E03FEF4FE757E46E8101
:101F20007F81888599850E94111C18164CF520E048
:101F300030E040E251E46A817B818C819D810E9486
:101F4000161CDC01CB01BC01CD010E946D1BDC0124
:101F5000CB019B878A870FC089E190E09D878C87A2
:101F60008C859D850197F1F79D878C878A859B8558
:101F700001979B878A878A859B85892B69F714C07F
:101F80006E817F81888599850E946D1BDC01CB0164
:101F90009B878A878A859B859F878E878E859F856D
:101FA0000197F1F79F878E8728E34CA55DA56EA565
:101FB0007FA588A999A90E941D1021E04CA55DA5C7
:101FC0006EA57FA588A999A90E941D1022E04CA5A5
:101FD0005DA56EA57FA588A999A90E941D1026E080
:101FE0004CA55DA56EA57FA588A999A90E941D1085
:101FF0002CE04CA55DA56EA57FA588A999A90E9496
:102000001D1028E24CA55DA56EA57FA588A999A9FC
:102010000E941D1020E84CA55DA56EA57FA588A98E
:1020200099A90E941D100000E1960FB6F894DEBF3A
:102030000FBECDBFDF91CF910895CF93DF9300D036
:1020400000D000D01F92CDB7DEB749835A836B838F
:102050007C838D839E832F838A8160E00E94700A37
:102060008F8182958F70282F49815A816B817C8165
:102070008D819E810E94C2124091B6005091B7009E
:102080006091B8007091B9008091BA009091BB0046
:102090000E94FD122F8149815A816B817C818D8143
:1020A0009E810E94C2124091B6005091B70060918B
:1020B000B8007091B9008091BA009091BB000E9465
:1020C000FD12000027960FB6F894DEBF0FBECDBFFD
:1020D000DF91CF910895CF93DF9300D000D000D04F
:1020E0001F92CDB7DEB749835A836B837C838D8380
:1020F0009E832F838A8161E00E94700A8F8182957E
:102100008F70282F49815A816B817C818D819E81BE
:102110000E94C2124091B6005091B7006091B80081
:102120007091B9008091BA009091BB000E94FD129D
:102130002F8149815A816B817C818D819E810E9492
:10214000C2124091B6005091B7006091B8007091F2
:10215000B9008091BA009091BB000E94FD1200006E
:1021600027960FB6F894DEBF0FBECDBFDF91CF919B
:102170000895CF93DF93CDB7DEB728970FB6F894C5
:10218000DEBF0FBECDBF49835A836B837C838D83B3
:102190009E8338872F8312C08F8198859C012F5F83
:1021A0003F4F38872F83FC018081282F49815A8136
:1021B0006B817C818D819E810E946B108F819885BF
:1021C000FC018081882341F7000028960FB6F8941F
:1021D000DEBF0FBECDBFDF91CF910895CF93DF93C8
:1021E000CDB7DEB72D970FB6F894DEBF0FBECDBFCB
:1021F0004E835F83688779878A879B873D872C8793
:102200008C859D85282FCE010196BC01822F0E94CE
:102210007114CE0101969C014E815F81688579859C
:102220008A859B850E94B91000002D960FB6F89400
:10223000DEBF0FBECDBFDF91CF910895CF93DF9367
:10224000CDB7DEB762970FB6F894DEBF0FBECDBF35
:102250004B875C876D877E878F87988B3A8B298B1E
:1022600089899A899E012F5F3F4FB9010E94A2146C
:10227000CE0101969C014B855C856D857E858F85A1
:1022800098890E94B910000062960FB6F894DEBFDC
:102290000FBECDBFDF91CF910895CF93DF93CDB720
:1022A000DEB76C970FB6F894DEBF0FBECDBF4D8B77
:1022B0005E8B6F8B788F898F9A8F3C8F2B8F8B8D56
:1022C0009C8D092E000CAA0BBB0B9E012F5F3F4F6C
:1022D000A901BC01CD010E94D314CE0101969C013D
:1022E0004D895E896F89788D898D9A8D0E94B9108C
:1022F00000006C960FB6F894DEBF0FBECDBFDF9125
:10230000CF910895EF920F93CF93DF93CDB7DEB7C0
:1023100029970FB6F894DEBF0FBECDBF49835A830D
:102320006B837C838D839E832F830887E986088552
:102330002F8149815A816B817C818D819E810E9490
:102340000E14298549815A816B817C818D819E8102
:102350000E946B10000029960FB6F894DEBF0FBEE6
:10236000CDBFDF91CF910F91EF900895EF92FF9243
:102370000F93CF93DF93CDB7DEB72A970FB6F894BC
:10238000DEBF0FBECDBF49835A836B837C838D83B1
:102390009E832F830887FA86E98608852F814981E5
:1023A0005A816B817C818D819E810E940E1489856A
:1023B0009A859C0149815A816B817C818D819E81A6
:1023C0000E94B91000002A960FB6F894DEBF0FBE27
:1023D000CDBFDF91CF910F91FF90EF900895EF92D5
:1023E000FF920F93CF93DF93CDB7DEB72A970FB647
:1023F000F894DEBF0FBECDBF49835A836B837C83C5
:102400008D839E832F830887FA86E98608852F812E
:1024100049815A816B817C818D819E810E940E143D
:1024200089859A859C0149815A816B817C818D8146
:102430009E810E94EE1000002A960FB6F894DEBF2F
:102440000FBECDBFDF91CF910F91FF90EF90089518
:10245000EF92FF920F93CF93DF93CDB7DEB72A971A
:102460000FB6F894DEBF0FBECDBF49835A836B838E
:102470007C838D839E832F830887FA86E98608856F
:102480002F8149815A816B817C818D819E810E943F
:102490000E1489859A859C0149815A816B817C81C2
:1024A0008D819E810E941E1100002A960FB6F8941D
:1024B000DEBF0FBECDBFDF91CF910F91FF90EF90A8
:1024C0000895EF92FF920F93CF93DF93CDB7DEB7CE
:1024D0002A970FB6F894DEBF0FBECDBF49835A834B
:1024E0006B837C838D839E832F830887FA86E9869E
:1024F00008852F8149815A816B817C818D819E81E4
:102500000E940E1489859A859C0149815A816B81AC
:102510007C818D819E810E944D1100002A960FB60C
:10252000F894DEBF0FBECDBFDF91CF910F91FF902A
:10253000EF9008950F93CF93DF93CDB7DEB7289731
:102540000FB6F894DEBF0FBECDBF49835A836B83AD
:102550007C838D839E832F83088708852F81498103
:102560005A816B817C818D819E810E940E140000B6
:1025700028960FB6F894DEBF0FBECDBFDF91CF9186
:102580000F910895CF93DF9300D000D000D01F9219
:10259000CDB7DEB749835A836B837C838D839E835B
:1025A0002F838F81982F91708B81692F0E94700AE1
:1025B0008F818695982F91708C81692F0E94700A67
:1025C0008F8186958695982F91708D81692F0E94B5
:1025D000700A8F81869586958695982F91708E8149
:1025E000692F0E94700A000027960FB6F894DEBF8C
:1025F0000FBECDBFDF91CF910895CF93DF93CDB7BD
:10260000DEB7A6970FB6F894DEBF0FBECDBF49A3C5
:102610005AA36BA37CA38DA39EA389A161E00E9412
:10262000700A80E090E0A0EAB0E489839A83AB83EB
:10263000BC832BEA3AEA4AEA5EE369817A818B81BC
:102640009C810E94161CDC01CB018D839E83AF838D
:10265000B88720E030E040E85EE369817A818B81D1
:102660009C810E94161CDC01CB0189879A87AB876D
:10267000BC8720E030E040E85FE36D817E818F81A0
:1026800098850E94F61A88231CF481E08D87B2C0D9
:1026900020E03FEF4FE757E469857A858B859C857D
:1026A0000E94111C18160CF07BC020E030E04AE7B5
:1026B00054E469817A818B819C810E94FB1ADC0140
:1026C000CB018E879F87A88BB98B20E030E04AE74B
:1026D00053E46E857F85888999890E94161CDC01E8
:1026E000CB018A8B9B8BAC8BBD8B20E030E040E82C
:1026F0005FE36A897B898C899D890E94F61A882309
:102700002CF481E090E09F8B8E8B3FC020E03FEF68
:102710004FE757E46A897B898C899D890E94111C47
:1027200018164CF520E030E040E251E46E857F85DC
:10273000888999890E94161CDC01CB01BC01CD015E
:102740000E946D1BDC01CB019F8B8E8B0FC089E13A
:1027500090E0998F888F888D998D0197F1F7998FE7
:10276000888F8E899F8901979F8B8E8B8E899F89F9
:10277000892B69F73FC06A897B898C899D890E9472
:102780006D1BDC01CB019F8B8E8B8E899F899B8F6C
:102790008A8F8A8D9B8D0197F1F79B8F8A8F2AC034
:1027A00020E030E04FE753E46D817E818F81988592
:1027B0000E94111C1816ACF469857A858B859C855E
:1027C0000E946D1BDC01CB019D8F8C8F8C8D9D8DAC
:1027D0009F8F8E8F8E8D9F8D0197F1F79F8F8E8F9C
:1027E0000FC06D817E818F8198850E946D1BDC01F9
:1027F000CB018D878D8588A388A18A95F1F788A361
:1028000089A160E00E94700A0000A6960FB6F894B5
:10281000DEBF0FBECDBFDF91CF9108950F93CF9351
:10282000DF93CDB7DEB728970FB6F894DEBF0FBEA3
:10283000CDBF49835A836B837C838D839E832F8393
:1028400008878885815088878F81882F90E0813024
:102850009105C1F0823091051CF4892B39F036C006
:1028600082309105D9F0039729F130C088858058CE
:10287000282F49815A816B817C818D819E810E94A4
:102880001D1024C088858054282F49815A816B816E
:102890007C818D819E810E941D1018C088858C5678
:1028A000282F49815A816B817C818D819E810E9474
:1028B0001D100CC088858C52282F49815A816B814C
:1028C0007C818D819E810E941D1000000000289651
:1028D0000FB6F894DEBF0FBECDBFDF91CF910F9141
:1028E0000895CF93DF9300D01F92CDB7DEB78983D1
:1028F0007B836A838A819B8144E050E060E070E0E2
:102900000E94831C8981882F90E0292F2F938F9319
:1029100087E591E0892F8F9387E591E08F938B81F5
:102920008F938A818F930E948A1C0F900F900F9033
:102930000F900F900F9000000F900F900F90DF916D
:10294000CF910895CF93DF9300D000D0CDB7DEB7FD
:102950009A8389837C836B838B819C8146E050E0E2
:1029600060E070E00E94831C8A818F9389818F933D
:1029700087E591E0892F8F9387E591E08F938C8194
:102980008F938B818F930E948A1C0F900F900F90D2
:102990000F900F900F9000000F900F900F900F90DE
:1029A000DF91CF910895CF93DF9300D000D000D076
:1029B000CDB7DEB769837A838B839C835E834D8337
:1029C0008D819E814BE050E060E070E00E94831CAE
:1029D0008C818F938B818F938A818F9389818F9341
:1029E00087E591E0892F8F9387E591E08F938E8122
:1029F0008F938D818F930E948A1C8DB79EB7089606
:102A00000FB6F894DEBF0FBECDBF000026960FB6FE
:102A1000F894DEBF0FBECDBFDF91CF910895CF9365
:102A2000DF9300D000D01F92CDB7DEB79B838A839F
:102A30007D836C8319821DC08981882F90E09E015F
:102A40002E5F3F4F820F931FFC01808161E00E9447
:102A5000FC098981882F90E09E012C5F3F4F820FF7
:102A6000931FFC01808161E00E94FC0989818F5FD6
:102A700089838981823000F300000F900F900F90BE
:102A80000F900F90DF91CF910895CF93DF9300D0F7
:102A900000D0CDB7DEB79A8389837C836B8389812D
:102AA00061E00E94700A8A8160E00E94700A8B8156
:102AB00061E00E94700A8C8160E00E94700A000050
:102AC0000F900F900F900F90DF91CF910895CF93BB
:102AD000DF9300D000D0CDB7DEB79A8389837C83A3
:102AE0006B83898160E00E94700A8A8161E00E94A4
:102AF000700A8B8160E00E94700A8C8161E00E9404
:102B0000700A00000F900F900F900F90DF91CF91FF
:102B10000895CF93DF9300D000D0CDB7DEB79A836E
:102B200089837C836B83898160E00E94700A8A813B
:102B300060E00E94700A8B8160E00E94700A8C81C4
:102B400061E00E94700A00000F900F900F900F90AC
:102B5000DF91CF910895CF93DF9300D000D0CDB710
:102B6000DEB79A8389837C836B83898160E00E94CE
:102B7000700A8A8161E00E94700A8B8160E00E9485
:102B8000700A8C8160E00E94700A00000F900F9024
:102B90000F900F90DF91CF910895CF93DF9300D0E6
:102BA00000D0CDB7DEB79A8389837C836B8389811C
:102BB00060E00E94700A8A8160E00E94700A8B8146
:102BC00060E00E94700A8C8160E00E94700A000040
:102BD0000F900F900F900F90DF91CF910895CF93AA
:102BE000DF93CDB7DEB72A970FB6F894DEBF0FBEDE
:102BF000CDBF2B833C834D835E836F83788789872A
:102C00009A8719821DC08981882F90E09E012D5FCF
:102C10003F4F820F931FFC01808160E00E94FC09FE
:102C20008981882F90E09E012D5F3F4F820F931F77
:102C3000FC01808161E00E94700A89818F5F898335
:102C40008981843000F31A821DC08A81882F90E028
:102C50009E01295F3F4F820F931FFC01808161E03D
:102C60000E94FC098A81882F90E09E01295F3F4FD6
:102C7000820F931FFC01808161E00E94700A8A81AB
:102C80008F5F8A838A81843000F300002A960FB612
:102C9000F894DEBF0FBECDBFDF91CF9108950F93A3
:102CA0001F93CF93DF93CDB7DEB76B970FB6F89432
:102CB000DEBF0FBECDBF2A8B3B8B4C8B5D8B6E8BEB
:102CC0007F8B888F998F1B8F0A8F1B821982DBC0A5
:102CD0008981882F90E09E012A5E3F4F820F931FCB
:102CE000FC01808160E00E94700A1A82B8C08A816B
:102CF000882F90E09E012E5E3F4F820F931FFC01B4
:102D000080810E94D00C882309F0A6C08A81282FD8
:102D100030E08981882F90E0220F331F220F331F6C
:102D2000820F931F80549F4FFC0120818A8D9B8DC1
:102D3000FC01208381E08B8300008A81882F90E052
:102D40009E012E5E3F4F820F931FFC0180810E94E7
:102D5000D00C882391F380E090E0A0E2B1E48C8372
:102D60009D83AE83BF8320E030E04AE753E46C816B
:102D70007D818E819F810E94161CDC01CB0188879A
:102D80009987AA87BB8720E030E040E85FE3688549
:102D900079858A859B850E94F61A88232CF481E028
:102DA00090E09D878C873FC020E03FEF4FE757E4DE
:102DB000688579858A859B850E94111C18164CF5BB
:102DC00020E030E040E251E46C817D818E819F8182
:102DD0000E94161CDC01CB01BC01CD010E946D1BC1
:102DE000DC01CB019D878C870FC089E190E09F8734
:102DF0008E878E859F850197F1F79F878E878C85BB
:102E00009D8501979D878C878C859D85892B69F78A
:102E100014C0688579858A859B850E946D1BDC01BD
:102E2000CB019D878C878C859D85998B888B888924
:102E300099890197F1F7998B888B8981882F90E088
:102E40009E012A5E3F4F820F931FFC01808161E04B
:102E50000E94700A8B811CC08A818F5F8A838A815D
:102E6000843008F444CF8981882F90E09E012A5E47
:102E70003F4F820F931FFC01808161E00E94700A26
:102E800089818F5F89838981843008F421CF8B8188
:102E90006B960FB6F894DEBF0FBECDBFDF91CF911A
:102EA0001F910F9108951F920F920FB60F92112448
:102EB0002F933F934F935F936F937F938F939F9342
:102EC000AF93BF93EF93FF93CF93DF93CDB7DEB76D
:102ED0002E97DEBFCDBF2091BE003091BF00809104
:102EE000BC009091BD00B9010E94671580E090E0A0
:102EF000AAEFB4E489839A83AB83BC8320E030E0FB
:102F00004AE753E469817A818B819C810E94161C77
:102F1000DC01CB018D839E83AF83B88720E030E056
:102F200040E85FE36D817E818F8198850E94F61A6B
:102F300088232CF481E090E09A8789873FC020E0C5
:102F40003FEF4FE757E46D817E818F8198850E9426
:102F5000111C18164CF520E030E040E251E4698184
:102F60007A818B819C810E94161CDC01CB01BC0103
:102F7000CD010E946D1BDC01CB019A8789870FC0B0
:102F800089E190E09C878B878B859C850197F1F781
:102F90009C878B8789859A8501979A8789878985F8
:102FA0009A85892B69F714C06D817E818F81988500
:102FB0000E946D1BDC01CB019A87898789859A85E0
:102FC0009E878D878D859E850197F1F79E878D87DA
:102FD0002091BE003091BF008091BC009091BD0057
:102FE000B9010E94CD1500002E960FB6F894DEBFF1
:102FF0000FBECDBFDF91CF91FF91EF91BF91AF9108
:103000009F918F917F916F915F914F913F912F9100
:103010000F900FBE0F901F901895CF93DF93CDB7F1
:10302000DEB763E080E00E94A3082091BE003091EB
:10303000BF008091BC009091BD00B9010E940F15A6
:103040004091B6005091B7006091B8007091B900FE
:103050008091BA009091BB000E943F0E2091D00059
:103060003091D1004091D2005091D3006091D400B2
:103070007091D5008091D6009091D7000E94EF15F5
:103080000E9449000000DF91CF9108950F931F9394
:10309000CF93DF93CDB7DEB7AD970FB6F894DEBF11
:1030A0000FBECDBF19821DA6CE018D968C01209139
:1030B000D0003091D1004091D2005091D300609166
:1030C000D4007091D5008091D6009091D7000E94D5
:1030D0004F168DA5833209F0BFC12CE04091B60098
:1030E0005091B7006091B8007091B9008091BA001A
:1030F0009091BB000E941D101A820E94A6008A8334
:103100008A81813009F09EC001E021E04091B60043
:103110005091B7006091B8007091B9008091BA00E9
:103120009091BB000E949A122AE531E04091B600CE
:103130005091B7006091B8007091B9008091BA00C9
:103140009091BB000E94B9102091BE003091BF0049
:103150008091BC009091BD00B9010E94CD1580E026
:1031600090E0AAEFB4E48B839C83AD83BE8320E020
:1031700030E04AE753E46B817C818D819E810E941F
:10318000161CDC01CB018F839887A987BA8720E0C2
:1031900030E040E85FE36F81788589859A850E94F9
:1031A000F61A88232CF481E090E09C878B873FC03F
:1031B00020E03FEF4FE757E46F81788589859A8556
:1031C0000E94111C18164CF520E030E040E251E45A
:1031D0006B817C818D819E810E94161CDC01CB015C
:1031E000BC01CD010E946D1BDC01CB019C878B874C
:1031F0000FC089E190E09E878D878D859E85019720
:10320000F1F79E878D878B859C8501979C878B879F
:103210008B859C85892B69F70FC16F81788589859E
:103220009A850E946D1BDC01CB019C878B878B8567
:103230009C85988B8F878F8598890197F1F7988B5C
:103240008F87FAC02091BE003091BF008091BC00F2
:103250009091BD00B9010E94451580E090E0AAEF71
:10326000B4E48F8F98A3A9A3BAA320E030E04AE783
:1032700053E46F8D78A189A19AA10E94161CDC01EC
:10328000CB018BA39CA3ADA3BEA320E030E040E81C
:103290005FE36BA17CA18DA19EA10E94F61A8823F9
:1032A0002CF481E090E098A78FA33FC020E03FEF8F
:1032B0004FE757E46BA17CA18DA19EA10E94111C38
:1032C00018164CF520E030E040E251E46F8D78A113
:1032D00089A19AA10E94161CDC01CB01BC01CD0181
:1032E0000E946D1BDC01CB0198A78FA30FC089E161
:1032F00090E09AA789A789A59AA50197F1F79AA7BF
:1033000089A78FA198A5019798A78FA38FA198A5AA
:10331000892B69F714C06BA17CA18DA19EA10E948D
:103320006D1BDC01CB0198A78FA38FA198A59CA74B
:103330008BA78BA59CA50197F1F79CA78BA7209144
:10334000BE003091BF008091BC009091BD00B901DA
:103350000E94CD1580E090E0AAEFB4E4898B9A8BAF
:10336000AB8BBC8B20E030E04AE753E469897A8973
:103370008B899C890E94161CDC01CB018D8B9E8B56
:10338000AF8BB88F20E030E040E85FE36D897E8945
:103390008F89988D0E94F61A88232CF481E090E0A2
:1033A0009A8F898F3FC020E03FEF4FE757E46D8948
:1033B0007E898F89988D0E94111C18164CF520E08B
:1033C00030E040E251E469897A898B899C890E94C6
:1033D000161CDC01CB01BC01CD010E946D1BDC0180
:1033E000CB019A8F898F0FC089E190E09C8F8B8FE2
:1033F0008B8D9C8D0197F1F79C8F8B8F898D9A8D8A
:1034000001979A8F898F898D9A8D892B69F714C0BE
:103410006D897E898F89988D0E946D1BDC01CB019F
:103420009A8F898F898D9A8D9E8F8D8F8D8D9E8D90
:103430000197F1F79E8F8D8F28E04091B600509153
:10344000B7006091B8007091B9008091BA00909176
:10345000BB000E941D100FC028E04091B6005091A3
:10346000B7006091B8007091B9008091BA00909156
:10347000BB000E941D100000AD960FB6F894DEBF91
:103480000FBECDBFDF91CF911F910F910895CF93C4
:10349000DF9300D000D01F92CDB7DEB749835A83A7
:1034A0006B837C838D83898161E00E94FC098A8122
:1034B00061E00E94FC098B8161E00E94FC098C8123
:1034C00061E00E94FC098D8161E00E94FC09498154
:1034D0005A816B817C818D810E94771A00000F9048
:1034E0000F900F900F900F90DF91CF910895CF9391
:1034F000DF9300D000D01F92CDB7DEB749835A8347
:103500006B837C838D83898161E00E94700A000057
:103510000F900F900F900F900F90DF91CF91089523
:10352000CF93DF9300D000D01F92CDB7DEB7498391
:103530005A836B837C838D83898160E00E94700A4B
:1035400000000F900F900F900F900F90DF91CF9190
:103550000895CF93DF9300D000D000D0CDB7DEB771
:1035600049835A836B837C838D832E838E818A303B
:1035700018F58E81982F91708A81692F0E94700AA8
:103580008E818695982F91708B81692F0E94700A89
:103590008E8186958695982F91708C81692F0E94D7
:1035A000700A8E81869586958695982F91708D816B
:1035B000692F0E94700A07C049815A816B817C8102
:1035C0008D810E94901A000026960FB6F894DEBFF7
:1035D0000FBECDBFDF91CF910895CF93DF93CDB7CD
:1035E000DEB70E940D180E944618FDCF0E949C1B5A
:1035F00008F481E008950E940F1B0C94D71B0E94D1
:10360000D01B58F00E94C91B40F029F45F3F29F0FD
:103610000C94C01B51110C940B1C0C94C61B0E94E3
:10362000E81B68F39923B1F3552391F3951B550BD0
:10363000BB27AA2762177307840738F09F5F5F4F85
:10364000220F331F441FAA1FA9F335D00E2E3AF0C4
:10365000E0E832D091505040E695001CCAF72BD0DC
:10366000FE2F29D0660F771F881FBB1F261737072D
:103670004807AB07B0E809F0BB0B802DBF01FF275F
:1036800093585F4F3AF09E3F510578F00C94C01B61
:103690000C940B1C5F3FE4F3983ED4F3869577952A
:1036A0006795B795F7959F5FC9F7880F911D969518
:1036B000879597F90895E1E0660F771F881FBB1F74
:1036C000621773078407BA0720F0621B730B840B21
:1036D000BA0BEE1F88F7E09508950E94F01B88F062
:1036E0009F5798F0B92F9927B751B0F0E1F0660FC6
:1036F000771F881F991F1AF0BA95C9F714C0B13007
:1037000091F00E940A1CB1E008950C940A1C672FE6
:10371000782F8827B85F39F0B93FCCF38695779535
:103720006795B395D9F73EF490958095709561951E
:103730007F4F8F4F9F4F0895990F0008550FAA0B89
:10374000E0E8FEEF16161706E807F907C0F01216B4
:103750001306E407F50798F0621B730B840B950BB7
:1037600039F40A2661F0232B242B252B21F408950C
:103770000A2609F4A140A6958FEF811D811D0895A9
:1037800097F99F6780E870E060E008959FEF80EC14
:10379000089500240A9416161706180609060895B7
:1037A00000240A9412161306140605060895092E1D
:1037B0000394000C11F4882352F0BB0F40F4BF2B8C
:1037C00011F460FF04C06F5F7F4F8F4F9F4F0895CC
:1037D00057FD9058440F551F59F05F3F71F04795C2
:1037E000880F97FB991F61F09F3F79F087950895A7
:1037F000121613061406551FF2CF4695F1DF08C0C6
:10380000161617061806991FF1CF869571056105E2
:1038100008940895E894BB2766277727CB0197F98A
:1038200008950E949C1B08F48FEF08950E94291CA4
:103830000C94D71B0E94C91B38F00E94D01B20F0AB
:10384000952311F00C94C01B0C94C61B11240C94EE
:103850000B1C0E94E81B70F3959FC1F3950F50E07D
:10386000551F629FF001729FBB27F00DB11D639F32
:10387000AA27F00DB11DAA1F649F6627B00DA11DD8
:10388000661F829F2227B00DA11D621F739FB00D7E
:10389000A11D621F839FA00D611D221F749F3327EE
:1038A000A00D611D231F849F600D211D822F762F87
:1038B0006A2F11249F5750409AF0F1F088234AF064
:1038C000EE0FFF1FBB1F661F771F881F91505040D0
:1038D000A9F79E3F510580F00C94C01B0C940B1C63
:1038E0005F3FE4F3983ED4F3869577956795B79557
:1038F000F795E7959F5FC1F7FE2B880F911D969571
:10390000879597F90895DC0101C06D9341505040AF
:10391000E0F70895AEE0B0E0E0E9FCE10C94391F77
:103920000D891E8986E08C831A8309838FEF9FE7B8
:103930009E838D83AE01475E5F4F6F89788DCE0188
:1039400001960E94AD1C2F813885020F131FF801CC
:1039500010822E96E4E00C94551FABE0B0E0E3EB50
:10396000FCE10C942B1F7C013B018A01FC011782B6
:103970001682838181FFC8C1CE0101965C01F701E7
:103980009381F30193FD859193FF81913F018823FA
:1039900009F453C1853239F493FD859193FF8191E8
:1039A0003F01853229F4B70190E00E949D1EE7CFC8
:1039B000912C212C312CFFE1F31538F08B3211F1D1
:1039C00090F4803209F1833229F137FC3CC020EDBC
:1039D000280F2A3050F536FE20C08AE0989E200D30
:1039E0001124922E06C08D3291F0803371F76894C5
:1039F00030F8F30193FD859193FF81913F0181118F
:103A0000DACF21C0689431F8689432F8F2CF689424
:103A100033F8EFCF689434F8ECCFEAE02E9E200D17
:103A20001124222E689435F8E4CF8E3229F436FC26
:103A300004C1689436F8DDCF8C3619F4689437F8F1
:103A4000D8CF8836B1F2982F9F7D95549330E0F00F
:103A50008336A1F18337C1F1833509F063C02801B2
:103A6000F2E04F0E511CF801C080D180692D70E04A
:103A700036FC02C06FEF7FEFC6010E94871E4C012B
:103A8000689437F882010AC00C5F1F4FFFE3F98387
:103A900088248394912C6501E89437F833FE2DC077
:103AA000522C8114910471F5552009F468CFB701A7
:103AB00080E290E00E949D1E5A94F6CFF80180812A
:103AC00089830E5F1F4FE4CF2801F2E04F0E511C97
:103AD000F801C080D180692D70E036FC02C06FEF24
:103AE0007FEFC6010E94921E4C018201D5CFB70123
:103AF00080E290E00E949D1E2A942814190409F087
:103B0000B0F7CECFF60137FC859137FE81916F017A
:103B1000B70190E00E949D1E51105A94F1E08F1A57
:103B20009108BFCF843619F0893609F077C0F801C3
:103B300037FE6BC060817181828193810C5F1F4F62
:103B4000F32DFF763F2E97FF09C0909580957095D5
:103B500061957F4F8F4F9F4F689437F82AE030E090
:103B6000A5010E94CD1EC82ECA188C2C432C36FEEF
:103B70000CC0E89440F8C91440F434FE05C032FC8F
:103B800003C0F32DFE7E4F2E892C44FE95C0FE010E
:103B9000EC0DF11D8081803309F087C0242D297E32
:103BA000422E842D8870582E43FC95C040FE8FC055
:103BB0009C2C821418F42C0C922C981844FE91C062
:103BC000B70180E390E00E949D1E42FE09C088E795
:103BD00090E041FE02C088E590E0B7010E949D1E82
:103BE000C91408F48AC0CA94D12C9FEFC91AD90A03
:103BF000CA0CDB1CF60182916F01B70190E00E94B4
:103C00009D1EAC14BD04B1F74FCF60817181072EAA
:103C1000000C880B990B0E5F1F4F92CFD32CE894AA
:103C2000D4F82AE030E0853739F1232D297FD22ED0
:103C30008F3601F148F48835A9F0F7018681978124
:103C40002B96E2E10C94471F803749F08837A9F79B
:103C5000D4FE02C06894D2F820E130E00DC0689430
:103C6000D4F8F6CF34FE03C0822F8660D82E20E130
:103C700032E002C028E030E0F801D7FE0FC06081DA
:103C80007181828193810C5F1F4FA5010E94CD1E1F
:103C9000C82ECA183D2CE89437F867CF608171812F
:103CA00090E080E00E5F1F4FF0CF42FC02C0839493
:103CB00078CF8394839475CF842D867809F471CF5F
:103CC000F6CFB70180E290E00E949D1E839482149B
:103CD000C0F3512C73CF522C5818821408F46ECFB5
:103CE000F8CF842D867809F47BCF8BE241FE80E209
:103CF00047FC8DE2B70190E071CFB70180E390E01F
:103D00000E949D1E9A946CCF8FEF9FEF99CFFC017C
:103D10000590615070400110D8F7809590958E0FF6
:103D20009F1F0895FC016150704001900110D8F769
:103D3000809590958E0F9F1F08950F931F93CF939B
:103D4000DF93182F092FEB018B8181FD09C01FEF35
:103D50000FEF812F902FDF91CF911F910F91089539
:103D600082FF14C02E813F818C819D8128173907E5
:103D70003CF4E881F981CF0101969983888310830F
:103D80008E819F8101969F838E83E3CFE885F9859D
:103D9000812F0995892BA1F3DACFFA01AA272830C0
:103DA00051F1203181F1E8946F936E7F6E5F7F4F08
:103DB0008F4F9F4FAF4FB1E03ED0B4E03CD0670F84
:103DC000781F891F9A1FA11D680F791F8A1F911DD7
:103DD000A11D6A0F711D811D911DA11D20D009F427
:103DE00068943F912AE0269F11243019305D319369
:103DF000DEF6CF010895462F4770405D4193B3E052
:103E00000FD0C9F7F6CF462F4F70405D4A3318F0F8
:103E1000495D31FD4052419302D0A9F7EACFB4E0A9
:103E2000A6959795879577956795BA95C9F7009761
:103E30006105710508959B01AC010A2E0694579502
:103E4000479537952795BA95C9F7620F731F841F59
:103E5000951FA01D08952F923F924F925F926F92EF
:103E60007F928F929F92AF92BF92CF92DF92EF920A
:103E7000FF920F931F93CF93DF93CDB7DEB7CA1B8B
:103E8000DB0B0FB6F894DEBF0FBECDBF09942A88B6
:103E9000398848885F846E847D848C849B84AA845E
:103EA000B984C884DF80EE80FD800C811B81AA81EB
:103EB000B981CE0FD11D0FB6F894DEBF0FBECDBFB6
:083EC000ED010895F894FFCF15
:103EC8003D3D3D3D3D3D3D3D3D3D3D3D3D3D3D3D1A
:103ED8003D3D3D3D3A003700340031000000000010
:103EE800000000000000000000003B003800350022
:103EF8003200000000000000000000000000000088
:103F080039003600330030000000000000000000D7
:103F180000000000000009080A0B0C0D1C1D1E1FE4
:103F28003738392F343536783132332D23303D2B1D
:103F3800000102030405060708090A0B0C496E6311
:103F48006F72726563742070617373776F72640047
:103F5800636F72726563742070617373776F7264D4
:103F68000057656C636F6D65204D617374657220D1
:103F78003C33004869204D6173746572000000008D
:103F88000000000000000020202057656C636F6D62
:103F98006520696E20486F6D652000534554205098
:103FA800415353574F524400456E74657220506117
:103FB8007373776F726400256900646F6F72206392
:103FC800616E2774206265206F70656E65640000FD
:00000001FF
