:100000000C942A000C947F160C9447000C94470023
:100010000C9447000C9447000C94F3020C94470096
:100020000C9447000C9447000C9447000C94470034
:100030000C9447000C9447000C9447000C94470024
:100040000C9447000C9447000C9447000C94470014
:100050000C94470011241FBECFE5D4E0DEBFCDBF16
:1000600010E0A0E6B0E0EEEAF1E302C005900D92E8
:10007000AC39B107D9F720E0ACE9B0E001C01D927E
:10008000A83AB207E1F70E94AC150C94D5180C946D
:100090000000CF93DF93CDB7DEB789E290E023E392
:1000A000FC01208380E490E020E430E0F90120812D
:1000B0002F7BFC01208380E490E020E430E0F90114
:1000C0002081277FFC01208380E490E020E430E061
:1000D000F90120812260FC01208380E490E020E48B
:1000E00030E0F90120812460FC01208380E490E06D
:1000F00020E430E0F90120812B7FFC0120838AE29B
:1001000090E02AE230E0F90120812860FC012083A0
:100110008AE290E02AE230E0F90120812061FC01CE
:1001200020830000DF91CF910895CF93DF93CDB767
:10013000DEB700008BE290E0FC018081881F8827F9
:10014000881F882F90E081709927892B99F38CE282
:1001500090E0FC018081DF91CF910895CF93DF93F0
:100160001F92CDB7DEB7898300008BE290E0FC01DF
:100170008081829586958770882F90E0817099277D
:10018000892B99F38CE290E02981FC012083000007
:100190000F90DF91CF910895CF93DF93CDB7DEB766
:1001A00082E490E022E430E0F90120812860FC0143
:1001B000208385E490E025E430E0F90120812F7B65
:1001C000FC01208385E490E025E430E0F901208102
:1001D000277FFC0120830000DF91CF910895CF930A
:1001E000DF93CDB7DEB785E490E025E430E0F90198
:1001F00020812560FC0120830000DF91CF910895CC
:10020000CF93DF93CDB7DEB785E490E025E430E00F
:10021000F9012081287FFC0120830000DF91CF912C
:100220000895CF93DF931F92CDB7DEB7898384E41F
:1002300090E02981FC01208300000F90DF91CF9195
:100240000895CF93DF931F92CDB7DEB7898383E400
:1002500090E02981FC01208300000F90DF91CF9175
:100260000895CF93DF93CDB7DEB78FE590E02FE50C
:1002700030E0F90120812068FC01208389E590E0CD
:1002800029E530E0F90120812064FC012083000091
:10029000DF91CF910895CF93DF93CDB7DEB789E596
:1002A00090E029E530E0F90120812F7BFC012083DB
:1002B0000000DF91CF910895CF93DF93CDB7DEB7E4
:1002C0008FE590E02FE530E0F90120812068FC0106
:1002D000208389E590E029E530E0F901208120685C
:1002E000FC0120830000DF91CF910895CF93DF932D
:1002F000CDB7DEB789E590E029E530E0F90120814E
:100300002F77FC0120830000DF91CF910895CF93D8
:10031000DF9300D0CDB7DEB79A8389838AE490E07B
:1003200029813A81FC013183208300000F900F90D6
:10033000DF91CF910895CF93DF9300D0CDB7DEB793
:100340009A83898388E490E029813A81FC01318392
:10035000208300000F900F90DF91CF910895CF93ED
:10036000DF9300D0CDB7DEB79A83898386E490E02F
:1003700029813A81FC013183208300000F900F9086
:10038000DF91CF910895CF93DF93CDB7DEB78FE4A0
:1003900090E02FE430E0F9012081FC0120838EE41D
:1003A00090E02EE430E0F9012081FC0120838FE40D
:1003B00090E02FE430E0F9012081206AFC012083E5
:1003C0000000DF91CF910895CF93DF93CDB7DEB7D3
:1003D0008EE490E02EE430E0F90120812F7BFC01D7
:1003E00020830000DF91CF910895CF93DF93CDB7A5
:1003F000DEB78EE490E02EE430E0F9012081206445
:10040000FC0120830000DF91CF910895CF93DF930B
:10041000CDB7DEB786E490E0FC0180819181DF9169
:10042000CF910895CF93DF93CDB7DEB78EE490E000
:100430002EE430E0F90120812260FC0120830000DD
:10044000DF91CF910895CF93DF93CDB7DEB78EE4E0
:1004500090E02EE430E0F9012081287FFC01208328
:100460000000DF91CF910895CF93DF93CDB7DEB732
:100470008FE590E02FE530E0F90120812068FC0154
:10048000208389E590E029E530E0F90120812460AE
:10049000FC0120830000DF91CF910895CF93DF937B
:1004A000CDB7DEB78FE590E02FE530E0F901208190
:1004B0002068FC01208389E590E029E530E0F9011E
:1004C00020812061FC0120830000DF91CF910895FD
:1004D000CF93DF93CDB7DEB78FE590E02FE530E027
:1004E000F90120812068FC01208389E590E029E55D
:1004F00030E0F90120812860FC0120830000DF91B9
:10050000CF910895CF93DF93CDB7DEB78FE590E01D
:100510002FE530E0F90120812068FC01208389E586
:1005200090E029E530E0F90120812062FC01208380
:100530000000DF91CF910895CF93DF93CDB7DEB761
:1005400089E590E029E530E0F90120812B7FFC016D
:1005500020830000DF91CF910895CF93DF93CDB733
:10056000DEB789E590E029E530E0F90120812F7EB2
:10057000FC0120830000DF91CF910895CF93DF939A
:10058000CDB7DEB789E590E029E530E0F9012081BB
:10059000277FFC0120830000DF91CF910895CF9346
:1005A000DF93CDB7DEB789E590E029E530E0F901CA
:1005B00020812F7DFC0120830000DF91CF910895E1
:1005C000CF93DF9300D0CDB7DEB79A83898389813B
:1005D0009A8190939D0080939C0000000F900F9053
:1005E000DF91CF9108951F920F9200905F000F92BC
:1005F00011242F933F934F935F936F937F938F9328
:100600009F93AF93BF93EF93FF93CF93DF93CDB7B8
:10061000DEB780919C0090919D00892B31F08091F4
:100620009C0090919D00FC0109950000DF91CF9105
:10063000FF91EF91BF91AF919F918F917F916F91BA
:100640005F914F913F912F910F9000925F000F901B
:100650001F901895CF93DF93CDB7DEB783E590E079
:1006600023E530E0F90120812064FC01208383E54B
:1006700090E023E530E0F9012081277FFC01208311
:1006800083E590E023E530E0F90120812062FC0160
:10069000208340E063E081E00E9486050000DF9156
:1006A000CF910895CF93DF9300D0CDB7DEB78A8383
:1006B00040E063E081E00E9486050E942A038A816F
:1006C000282F30E040E050E08FEF90E0DC010E9406
:1006D000F116DC01CB0124E630E040E050E0BC0143
:1006E000CD010E94B016DA01C901898389810E9477
:1006F000B3030E94810300000F900F90DF91CF9110
:100700000895CF93DF93CDB7DEB783E590E023E57F
:1007100030E0F90120812260FC0120830000DF919C
:10072000CF910895CF93DF93CDB7DEB783E590E007
:1007300023E530E0F9012081287FFC0120830000BF
:10074000DF91CF910895CF93DF931F92CDB7DEB79E
:10075000898382E590E02981FC01208300000F90CD
:10076000DF91CF910895CF93DF931F92CDB7DEB77E
:1007700089838CE590E02981FC01208300000F90A3
:10078000DF91CF910895CF93DF93CDB7DEB78FE59B
:1007900090E02FE530E0F90120812068FC01208302
:1007A00089E590E029E530E0F90120812160FC0134
:1007B00020830000DF91CF910895CF93DF93CDB7D1
:1007C000DEB789E590E029E530E0F90120812E7F50
:1007D000FC0120830000DF91CF910895CF93DF9338
:1007E000CDB7DEB78FE590E02FE530E0F90120814D
:1007F0002068FC01208389E590E029E530E0F901DB
:1008000020812260FC0120830000DF91CF910895B8
:10081000CF93DF93CDB7DEB789E590E029E530E0EF
:10082000F90120812D7FFC0120830000DF91CF9111
:100830000895CF93DF9300D0CDB7DEB789836A8365
:100840008FE590E02FE530E0F90120812068FC0180
:1008500020838981882F90E08130910551F082308A
:10086000910559F0892B09F00CC08A810E94470438
:1008700008C08A810E94C70404C08A810E9447057B
:10088000000000000F900F90DF91CF910895CF935B
:10089000DF931F92CDB7DEB789838AE590E02AE522
:1008A00030E0F90120812F7BFC01208341E062E0F0
:1008B00083E00E9486058BE590E02BE530E0F901AE
:1008C00020812064FC0120838981882F90E0813081
:1008D0009105F9F0823091051CF4892B39F052C052
:1008E0008230910549F10397D1F14CC085E590E044
:1008F00025E530E0F90120812D7FFC01208385E58D
:1009000090E025E530E0F90120812E7FFC01208375
:1009100039C085E590E025E530E0F90120812D7FA3
:10092000FC01208385E590E025E530E0F901208198
:100930002160FC01208326C085E590E025E530E0BC
:10094000F90120812260FC01208385E590E025E506
:1009500030E0F90120812E7FFC01208313C085E562
:1009600090E025E530E0F90120812260FC01208340
:1009700085E590E025E530E0F90120812160FC016A
:100980002083000000000F90DF91CF910895CF9356
:10099000DF931F92CDB7DEB789838AE590E02AE521
:1009A00030E0F90120812F77FC01208341E063E0F2
:1009B00083E00E9486058BE590E02BE530E0F901AD
:1009C00020812068FC0120838981882F90E081307C
:1009D0009105F9F0823091051CF4892B39F052C051
:1009E0008230910549F10397D1F14CC085E590E043
:1009F00025E530E0F9012081277FFC01208385E592
:100A000090E025E530E0F90120812B7FFC01208377
:100A100039C085E590E025E530E0F9012081277FA8
:100A2000FC01208385E590E025E530E0F901208197
:100A30002460FC01208326C085E590E025E530E0B8
:100A4000F90120812860FC01208385E590E025E5FF
:100A500030E0F90120812B7FFC01208313C085E564
:100A600090E025E530E0F90120812860FC01208339
:100A700085E590E025E530E0F90120812460FC0166
:100A80002083000000000F90DF91CF910895CF9355
:100A9000DF931F92CDB7DEB789838AE590E02AE520
:100AA00030E0F90120812F7DFC01208341E062E0EC
:100AB00081E00E9486058BE590E02BE530E0F901AE
:100AC00020812062FC0120838981882F90E0823080
:100AD000910519F0039759F014C084E590E024E5DE
:100AE00030E0F90120812F7BFC0120830AC084E5DE
:100AF00090E024E530E0F90120812064FC012083AE
:100B0000000000000F90DF91CF910895CF93DF9305
:100B100000D01F92CDB7DEB789836A834B838B8168
:100B2000882F90E0009719F0019731F14BC089812F
:100B3000882F90E0880F991F805A9F4FFC01808179
:100B400091812981222F30E0220F331F205A3F4FFD
:100B5000F90120813181F9012081622F2A81422F00
:100B600050E021E030E002C0220F331F4A95E2F747
:100B7000262BFC01208326C08981882F90E0880FD6
:100B8000991F805A9F4FFC01808191812981222FDA
:100B900030E0220F331F205A3F4FF901208131816D
:100BA000F9012081622F2A81422F50E021E030E0BC
:100BB00002C0220F331F4A95E2F720952623FC013D
:100BC0002083000000000F900F900F90DF91CF91D5
:100BD0000895CF93DF9300D01F92CDB7DEB78983FE
:100BE0006A834B838B81882F90E08130910539F0A7
:100BF0008230910509F44EC0892B31F170C0898192
:100C0000882F90E0880F991F88599F4FFC018081A1
:100C100091812981222F30E0220F331F28593F4F25
:100C2000F90120813181F9012081622F2A81422F2F
:100C300050E021E030E002C0220F331F4A95E2F776
:100C4000262BFC0120834BC08981882F90E0880FE0
:100C5000991F88599F4FFC01808191812981222F02
:100C600030E0220F331F28593F4FF9012081318195
:100C7000F9012081622F2A81422F50E021E030E0EB
:100C800002C0220F331F4A95E2F720952623FC016C
:100C9000208325C08981882F90E0880F991F88596B
:100CA0009F4FFC01808191812981222F30E0220F0A
:100CB000331F28593F4FF90120813181F9012081EB
:100CC000622F2A81422F50E021E030E002C0220F43
:100CD000331F4A95E2F72627FC012083000000001D
:100CE0000F900F900F90DF91CF910895CF93DF93E6
:100CF00000D01F92CDB7DEB78A836B8319828A81B9
:100D0000882F90E0880F991F80599F4FFC018081A8
:100D10009181FC018081882F90E02B81222F30E08F
:100D200002C0959587952A95E2F78170898389811C
:100D30000F900F900F90DF91CF910895CF93DF9395
:100D400000D0CDB7DEB789836A838981882F90E090
:100D5000880F991F805A9F4FFC01808191812A81C1
:100D6000FC01208300000F900F90DF91CF91089538
:100D7000CF93DF9300D0CDB7DEB789836A838981B3
:100D8000882F90E0880F991F88599F4FFC01808120
:100D900091812A81FC01208300000F900F90DF9148
:100DA000CF910895CF93DF9300D0CDB7DEB78A837C
:100DB00019828A81882F90E0880F991F80599F4F50
:100DC000FC0180819181FC018081898389810F9060
:100DD0000F90DF91CF910895CF93DF93CDB7DEB71A
:100DE00087E290E027E230E0F90120812064FC01F5
:100DF000208387E290E027E230E0F90120812F771D
:100E0000FC01208386E290E026E230E0F9012081B7
:100E10002068FC01208386E290E026E230E0F901C0
:100E200020812760FC0120830000DF91CF9108958D
:100E3000CF93DF9300D01F92CDB7DEB78B831A829A
:100E4000198287E290E027E230E0F9012081207EDC
:100E5000FC01208387E290E027E230E0F901308155
:100E60002B81232BFC01208386E290E026E230E0F8
:100E7000F90120812064FC012083000086E290E0DB
:100E8000FC0180818295869586958370882F90E0FD
:100E900081709927892B91F784E290E0FC01808191
:100EA000882F90E09A83898385E290E0FC0180811D
:100EB000882F90E0982F88279C0189819A81822B26
:100EC000932B9A83898389819A810F900F900F9039
:100ED000DF91CF910895CF93DF93CDB7DEB786E250
:100EE00090E026E230E0F90120812068FC012083B7
:100EF0000000DF91CF910895CF93DF93CDB7DEB798
:100F000086E290E026E230E0F90120812F77FC01B3
:100F100020830000DF91CF910895CF93DF93CDB769
:100F2000DEB78FE590E02FE530E0F9012081206801
:100F3000FC01208386E290E026E230E0F901208186
:100F40002860FC0120830000DF91CF910895CF93AA
:100F5000DF93CDB7DEB786E290E026E230E0F9011C
:100F600020812061FC0120830000DF91CF91089552
:100F7000CF93DF93CDB7DEB786E290E026E230E094
:100F8000F9012081277FFC0120830000DF91CF91B0
:100F90000895CF93DF93CDB7DEB740E067E083E0FD
:100FA0000E94860541E066E083E00E9486050E947B
:100FB000F5010E94C3010E9482020E9412028CE489
:100FC0009AE00E94E0020000DF91CF910895CF9354
:100FD000DF93CDB7DEB7A0970FB6F894DEBF0FBE94
:100FE000CDBF41E067E083E00E94E90580E090E04A
:100FF000A0E2B1E489839A83AB83BC832BEA3AEA0B
:101000004AEA5EE369817A818B819C810E9468183B
:10101000DC01CB018D839E83AF83B88720E030E075
:1010200040E85EE369817A818B819C810E94681827
:10103000DC01CB0189879A87AB87BC8720E030E051
:1010400040E85FE36D817E818F8198850E940B1758
:1010500088231CF481E08D87B2C020E03FEF4FE78A
:1010600057E469857A858B859C850E9463181816DC
:101070000CF07BC020E030E04AE754E469817A81DB
:101080008B819C810E941017DC01CB018E879F878A
:10109000A88BB98B20E030E04AE753E46E857F856A
:1010A000888999890E946818DC01CB018A8B9B8B07
:1010B000AC8BBD8B20E030E040E85FE36A897B8940
:1010C0008C899D890E940B1788232CF481E090E085
:1010D0009F8B8E8B3FC020E03FEF4FE757E46A893C
:1010E0007B898C899D890E94631818164CF520E035
:1010F00030E040E251E46E857F85888999890E94BD
:101100006818DC01CB01BC01CD010E948217DC0113
:10111000CB019F8B8E8B0FC089E190E0998F888FD8
:10112000888D998D0197F1F7998F888F8E899F8986
:1011300001979F8B8E8B8E899F89892B69F73FC082
:101140006A897B898C899D890E948217DC01CB0189
:101150009F8B8E8B8E899F899B8F8A8F8A8D9B8D8B
:101160000197F1F79B8F8A8F2AC020E030E04FE78C
:1011700053E46D817E818F8198850E9463181816D3
:10118000ACF469857A858B859C850E948217DC0189
:10119000CB019D8F8C8F8C8D9D8D9F8F8E8F8E8D93
:1011A0009F8D0197F1F79F8F8E8F0FC06D817E818C
:1011B0008F8198850E948217DC01CB018D878D85F8
:1011C00088A388A18A95F1F788A340E067E083E0CF
:1011D0000E94E9050000A0960FB6F894DEBF0FBE8E
:1011E000CDBFDF91CF910895CF93DF93CDB7DEB719
:1011F000A6970FB6F894DEBF0FBECDBF0E94E707DB
:1012000080E593ECA0E0B0E089839A83AB83BC8354
:10121000EFC080E090E0A0E8BFE38F839887A987C4
:10122000BA872BEA3AEA4AEA5EE36F8178858985D4
:101230009A850E946818DC01CB018B879C87AD875B
:10124000BE8720E030E040E85EE36F8178858985E5
:101250009A850E946818DC01CB018F87988BA98B37
:10126000BA8B20E030E040E85FE36B857C858D85BC
:101270009E850E940B1788231CF481E08B8BB2C0E3
:1012800020E03FEF4FE757E46F85788989899A8995
:101290000E94631818160CF07BC020E030E04AE78B
:1012A00054E46F81788589859A850E941017DC0146
:1012B000CB018C8B9D8BAE8BBF8B20E030E04AE75F
:1012C00053E46C897D898E899F890E946818DC01AE
:1012D000CB01888F998FAA8FBB8F20E030E040E848
:1012E0005FE3688D798D8A8D9B8D0E940B17882313
:1012F0002CF481E090E09D8F8C8F3FC020E03FEF89
:101300004FE757E4688D798D8A8D9B8D0E94631815
:1013100018164CF520E030E040E251E46C897D89FC
:101320008E899F890E946818DC01CB01BC01CD0128
:101330000E948217DC01CB019D8F8C8F0FC089E149
:1013400090E09F8F8E8F8E8D9F8D0197F1F79F8FED
:101350008E8F8C8D9D8D01979D8F8C8F8C8D9D8D0B
:10136000892B69F73FC0688D798D8A8D9B8D0E948E
:101370008217DC01CB019D8F8C8F8C8D9D8D99A365
:1013800088A388A199A10197F1F799A388A32AC0FE
:1013900020E030E04FE753E46B857C858D859E85AA
:1013A0000E9463181816ACF46F85788989899A8928
:1013B0000E948217DC01CB019BA38AA38AA19BA177
:1013C0009DA38CA38CA19DA10197F1F79DA38CA354
:1013D0000FC06B857C858D859E850E948217DC0100
:1013E000CB018B8B8B898EA38EA18A95F1F78EA36F
:1013F0008091A200882399F089819A81AB81BC8178
:101400009C01AD01215031094109510929833A83D9
:101410004B835C83892B8A2B8B2B09F0FACE898135
:101420009A81AB81BC81892B8A2B8B2B19F48FEF8E
:101430009FEF29C02091A0003091A10080919E00D3
:1014400090919F00A901481B590BCA019E838D836F
:101450008D819E81CC01A0E0B0E0BC01CD010E9455
:10146000B117DC01CB0129E832ED4EED5CE3BC01A4
:10147000CD010E946818DC01CB01BC01CD010E94A6
:101480008217DC01CB01A6960FB6F894DEBF0FBE23
:10149000CDBFDF91CF910895CF93DF93CDB7DEB766
:1014A0008091A200882361F40E94060290939F001D
:1014B00080939E000E94E40181E08093A2000AC014
:1014C0000E9406029093A1008093A0000E94F50163
:1014D0001092A2000000DF91CF9108950F931F9307
:1014E000CF93DF93CDB7DEB7C654D1090FB6F894CA
:1014F000DEBF0FBECDBF8091780040E0682F82E054
:101500000E9486058091790040E0682F82E00E9469
:10151000860580917A0040E0682F82E00E9486056F
:1015200080917B0040E0682F82E00E94860540E0C9
:1015300064E082E00E94860540E065E082E00E946F
:10154000860580E090E0A0E2B2E4898B9A8BAB8BB9
:10155000BC8B20E030E04AE753E469897A898B89C3
:101560009C890E946818DC01CB018D8B9E8BAF8B10
:10157000B88F20E030E040E85FE36D897E898F8995
:10158000988D0E940B1788232CF481E090E09A8FAD
:10159000898F3FC020E03FEF4FE757E46D897E8998
:1015A0008F89988D0E94631818164CF520E030E062
:1015B00040E251E469897A898B899C890E94681884
:1015C000DC01CB01BC01CD010E948217DC01CB0103
:1015D0009A8F898F0FC089E190E09C8F8B8F8B8DC4
:1015E0009C8D0197F1F79C8F8B8F898D9A8D019738
:1015F0009A8F898F898D9A8D892B69F714C06D898F
:101600007E898F89988D0E948217DC01CB019A8F89
:10161000898F898D9A8D9E8F8D8F8D8D9E8D01974F
:10162000F1F79E8F8D8F40E064E082E00E94E90533
:101630001092A30022C08091A300882F90E09C010B
:101640002C5F3F4F88E290E002C0959587952A95E0
:10165000E2F7282F21708091A300882F90E088580E
:101660009F4FFC018081422F682F82E00E94E90594
:101670008091A3008F5F8093A3008091A3008430AA
:10168000D0F241E065E082E00E94E90580E090E070
:10169000A0E8BFE38D839E83AF83B88720E030E06E
:1016A0004AE753E46D817E818F8198850E94681896
:1016B000DC01CB019E01235C3F4FF90180839183C4
:1016C000A283B38320E030E040E85FE3CE01CD9613
:1016D000FC0160817181828193810E940B178823B4
:1016E0004CF4CE018F5B9F4F21E030E0FC01318351
:1016F000208367C020E03FEF4FE757E4CE01CD964F
:10170000FC0160817181828193810E9463181816A7
:101710000CF046C020E030E040E251E46D817E8173
:101720008F8198850E946818DC01CB018E010F5BC8
:101730001F4FBC01CD010E948217DC01CB01F801D3
:101740009183808324C0CE018D5B9F4F29E130E0DF
:10175000FC0131832083CE018D5B9F4FFC01808192
:1017600091810197F1F79E012D5B3F4FF901918324
:101770008083CE018F5B9F4F9E012F5B3F4FF9010E
:101780002081318121503109FC0131832083CE0138
:101790008F5B9F4FFC0180819181892BA1F62BC02B
:1017A0008E010F5B1F4FCE01CD96FC0160817181D0
:1017B000828193810E948217DC01CB01F801918321
:1017C0008083CE018B5B9F4F9E012F5B3F4FF901C2
:1017D00020813181FC0131832083CE018B5B9F4FBF
:1017E000FC01808191810197F1F79E012B5B3F4FB6
:1017F000F9019183808340E065E082E00E94E90581
:1018000088E20E946F0D80E090E0A0E8BFE3898746
:101810009A87AB87BC8720E030E04AE753E46985CC
:101820007A858B859C850E946818DC01CB018BAB87
:101830009CABADABBEAB20E030E040E85FE36BA912
:101840007CA98DA99EA90E940B1788232CF481E006
:1018500090E098AF8FAB3FC020E03FEF4FE757E4F9
:101860006BA97CA98DA99EA90E94631818164CF536
:1018700020E030E040E251E469857A858B859C85E3
:101880000E946818DC01CB01BC01CD010E948217C7
:10189000DC01CB0198AF8FAB0FC089E190E09AAF2C
:1018A00089AF89AD9AAD0197F1F79AAF89AF8FA94A
:1018B00098AD019798AF8FAB8FA998AD892B69F739
:1018C00014C06BA97CA98DA99EA90E948217DC0176
:1018D000CB0198AF8FAB8FA998AD9CAF8BAF8BAD81
:1018E0009CAD0197F1F79CAF8BAF8CE00E946F0D20
:1018F00080E090E0A0E8BFE38D879E87AF87B88B3C
:1019000020E030E04AE753E46D857E858F85988935
:101910000E946818DC01CB0189A79AA7ABA7BCA7D6
:1019200020E030E040E85FE369A57AA58BA59CA59F
:101930000E940B1788232CF481E090E09EA78DA7CE
:101940003FC020E03FEF4FE757E469A57AA58BA59C
:101950009CA50E94631818164CF520E030E040E288
:1019600051E46D857E858F8598890E946818DC0119
:10197000CB01BC01CD010E948217DC01CB019EA7E7
:101980008DA70FC089E190E098AB8FA78FA598A98C
:101990000197F1F798AB8FA78DA59EA501979EA7FC
:1019A0008DA78DA59EA5892B69F714C069A57AA579
:1019B0008BA59CA50E948217DC01CB019EA78DA759
:1019C0008DA59EA59AAB89AB89A99AA90197F1F734
:1019D0009AAB89AB81E00E946F0D80E090E0A0E0BF
:1019E000B0E489839A83AB83BC8320E030E04AE78C
:1019F00053E469817A818B819C810E946818DC01A3
:101A0000CB018F8F98A3A9A3BAA320E030E040E8D0
:101A10005FE36F8D78A189A19AA10E940B1788239B
:101A20002CF481E090E09CA38BA33FC020E03FEF2B
:101A30004FE757E46F8D78A189A19AA10E9463189E
:101A400018164CF520E030E040E251E469817A81DB
:101A50008B819C810E946818DC01CB01BC01CD0107
:101A60000E948217DC01CB019CA38BA30FC089E1EC
:101A700090E09EA38DA38DA19EA10197F1F79EA357
:101A80008DA38BA19CA101979CA38BA38BA19CA14F
:101A9000892B69F714C06F8D78A189A19AA10E9442
:101AA0008217DC01CB019CA38BA38BA19CA198A7DF
:101AB0008FA38FA198A50197F1F798A78FA386E030
:101AC0000E946F0D0000CA5BDF4F0FB6F894DEBFB7
:101AD0000FBECDBFDF91CF911F910F910895CF938E
:101AE000DF93CDB7DEB76E970FB6F894DEBF0FBEAB
:101AF000CDBF8E8F198240E064E082E00E94E9054C
:101B000019821EC08E8D882F90E02981222F30E00F
:101B10002C5F3F4F02C0959587952A95E2F7282FB5
:101B200021708981882F90E088589F4FFC01808127
:101B3000422F682F82E00E94E90589818F5F8983A7
:101B400089818430F8F241E065E082E00E94E90595
:101B500080E090E0A0E8BFE38E839F83A887B987E9
:101B600020E030E04AE753E46E817F8188859985E3
:101B70000E946818DC01CB018A879B87AC87BD87F0
:101B800020E030E040E85FE36A857B858C859D85B9
:101B90000E940B1788232CF481E090E09F878E87AA
:101BA0003FC020E03FEF4FE757E46A857B858C8597
:101BB0009D850E94631818164CF520E030E040E245
:101BC00051E46E817F81888599850E946818DC01C7
:101BD000CB01BC01CD010E948217DC01CB019F87A4
:101BE0008E870FC089E190E0998B888B88899989CD
:101BF0000197F1F7998B888B8E859F8501979F8739
:101C00008E878E859F85892B69F714C06A857B85B1
:101C10008C859D850E948217DC01CB019F878E8772
:101C20008E859F859B8B8A8B8A899B890197F1F78B
:101C30009B8B8A8B40E065E082E00E94E905198277
:101C40001CC08E8D882F90E02981222F30E002C0A9
:101C5000959587952A95E2F7282F21708981882FFD
:101C600090E088589F4FFC018081422F682F82E0CE
:101C70000E94E90589818F5F89838981843008F317
:101C800041E065E082E00E94E90580E090E0A0E8A4
:101C9000BFE38A839B83AC83BD8320E030E04AE7C7
:101CA00053E46A817B818C819D810E946818DC01EC
:101CB000CB018C8B9D8BAE8BBF8B20E030E040E85E
:101CC0005FE36C897D898E899F890E940B17882329
:101CD0002CF481E090E0998F888F3FC020E03FEFA7
:101CE0004FE757E46C897D898E899F890E9463182C
:101CF00018164CF520E030E040E251E46A817B8127
:101D00008C819D810E946818DC01CB01BC01CD0152
:101D10000E948217DC01CB01998F888F0FC089E167
:101D200090E09B8F8A8F8A8D9B8D0197F1F79B8F17
:101D30008A8F888D998D0197998F888F888D998D3D
:101D4000892B69F714C06C897D898E899F890E94CF
:101D50008217DC01CB01998F888F888D998D9D8F9B
:101D60008C8F8C8D9D8D0197F1F79D8F8C8F40E02E
:101D700065E082E00E94E90500006E960FB6F894D7
:101D8000DEBF0FBECDBFDF91CF910895CF93DF931C
:101D9000CDB7DEB76E970FB6F894DEBF0FBECDBFDE
:101DA0008E8F198241E064E082E00E94E905198289
:101DB0001EC08E8D882F90E02981222F30E02C5F6D
:101DC0003F4F02C0959587952A95E2F7282F2170FD
:101DD0008981882F90E088589F4FFC018081422F95
:101DE000682F82E00E94E90589818F5F898389815C
:101DF0008430F8F241E065E082E00E94E90580E08D
:101E000090E0A0E8BFE38E839F83A887B98720E096
:101E100030E04AE753E46E817F81888599850E948E
:101E20006818DC01CB018A879B87AC87BD8720E0DF
:101E300030E040E85FE36A857B858C859D850E9464
:101E40000B1788232CF481E090E09F878E873FC09A
:101E500020E03FEF4FE757E46A857B858C859D85C1
:101E60000E94631818164CF520E030E040E251E47F
:101E70006E817F81888599850E946818DC01CB017D
:101E8000BC01CD010E948217DC01CB019F878E87A8
:101E90000FC089E190E0998B888B88899989019797
:101EA000F1F7998B888B8E859F8501979F878E8709
:101EB0008E859F85892B69F714C06A857B858C8503
:101EC0009D850E948217DC01CB019F878E878E85BE
:101ED0009F859B8B8A8B8A899B890197F1F79B8BC6
:101EE0008A8B40E065E082E00E94E90519821CC00F
:101EF0008E8D882F90E02981222F30E002C09595A9
:101F000087952A95E2F7282F21708981882F90E004
:101F100088589F4FFC018081422F682F82E00E94E9
:101F2000E90589818F5F89838981843008F341E0E5
:101F300065E082E00E94E90580E090E0A0E8BFE370
:101F40008A839B83AC83BD8320E030E04AE753E47F
:101F50006A817B818C819D810E946818DC01CB01A4
:101F60008C8B9D8BAE8BBF8B20E030E040E85FE335
:101F70006C897D898E899F890E940B1788232CF498
:101F800081E090E0998F888F3FC020E03FEF4FE7DE
:101F900057E46C897D898E899F890E946318181681
:101FA0004CF520E030E040E251E46A817B818C8195
:101FB0009D810E946818DC01CB01BC01CD010E940B
:101FC0008217DC01CB01998F888F0FC089E190E0E7
:101FD0009B8F8A8F8A8D9B8D0197F1F79B8F8A8FBC
:101FE000888D998D0197998F888F888D998D892BF0
:101FF00069F714C06C897D898E899F890E94821738
:10200000DC01CB01998F888F888D998D9D8F8C8F66
:102010008C8D9D8D0197F1F79D8F8C8F40E065E051
:1020200082E00E94E90500006E960FB6F894DEBFCC
:102030000FBECDBFDF91CF910895CF93DF93CDB782
:10204000DEB76D970FB6F894DEBF0FBECDBF198215
:1020500040E064E082E00E94E90519821EC08981A7
:10206000882F90E09C012C5F3F4F81E090E002C000
:10207000959587952A95E2F7282F21708981882FD9
:1020800090E088589F4FFC018081422F682F82E0AA
:102090000E94E90589818F5F898389818430F8F204
:1020A00041E065E082E00E94E90580E090E0A0E880
:1020B000BFE38E839F83A887B98720E030E04AE79B
:1020C00053E46E817F81888599850E946818DC01C0
:1020D000CB018A879B87AC87BD8720E030E040E852
:1020E0005FE36A857B858C859D850E940B1788231D
:1020F0002CF481E090E09F878E873FC020E03FEF87
:102100004FE757E46A857B858C859D850E9463181F
:1021100018164CF520E030E040E251E46E817F81FA
:10212000888599850E946818DC01CB01BC01CD012E
:102130000E948217DC01CB019F878E870FC089E147
:1021400090E0998B888B888999890197F1F7998B11
:10215000888B8E859F8501979F878E878E859F852B
:10216000892B69F714C06A857B858C859D850E94C3
:102170008217DC01CB019F878E878E859F859B8B85
:102180008A8B8A899B890197F1F79B8B8A8B40E028
:1021900065E082E00E94E90519821BC08981282F31
:1021A00030E081E090E002C0959587952A95E2F7AE
:1021B000282F21708981882F90E088589F4FFC013B
:1021C0008081422F682F82E00E94E90589818F5F1C
:1021D00089838981843010F341E065E082E00E94C8
:1021E000E90580E090E0A0E8BFE38A839B83AC83AD
:1021F000BD8320E030E04AE753E46A817B818C8133
:102200009D810E946818DC01CB018C8B9D8BAE8B6D
:10221000BF8B20E030E040E85FE36C897D898E89E8
:102220009F890E940B1788232CF481E090E0998FFE
:10223000888F3FC020E03FEF4FE757E46C897D89EE
:102240008E899F890E94631818164CF520E030E0B3
:1022500040E251E46A817B818C819D810E946818F3
:10226000DC01CB01BC01CD010E948217DC01CB0156
:10227000998F888F0FC089E190E09B8F8A8F8A8D1C
:102280009B8D0197F1F79B8F8A8F888D998D019790
:10229000998F888F888D998D892B69F714C06C89E7
:1022A0007D898E899F890E948217DC01CB01998FDD
:1022B000888F888D998D9D8F8C8F8C8D9D8D0197AA
:1022C000F1F79D8F8C8F40E065E082E00E94E90588
:1022D00000006D960FB6F894DEBF0FBECDBFDF9144
:1022E000CF910895CF93DF93CDB7DEB76D970FB63B
:1022F000F894DEBF0FBECDBF198240E064E082E0FB
:102300000E94E90519821EC08981882F90E09C01F6
:102310002C5F3F4F88E190E002C0959587952A9504
:10232000E2F7282F21708981882F90E088589F4FED
:10233000FC018081422F682F82E00E94E90589819B
:102340008F5F898389818430F8F241E065E082E023
:102350000E94E90580E090E0A0E8BFE38E839F83C0
:10236000A887B98720E030E04AE753E46E817F8197
:10237000888599850E946818DC01CB018A879B8734
:10238000AC87BD8720E030E040E85FE36A857B856D
:102390008C859D850E940B1788232CF481E090E0AA
:1023A0009F878E873FC020E03FEF4FE757E46A8565
:1023B0007B858C859D850E94631818164CF520E05E
:1023C00030E040E251E46E817F81888599850E94EA
:1023D0006818DC01CB01BC01CD010E948217DC0131
:1023E000CB019F878E870FC089E190E0998B888B06
:1023F000888999890197F1F7998B888B8E859F85BC
:1024000001979F878E878E859F85892B69F714C0DA
:102410006A857B858C859D850E948217DC01CB01B6
:102420009F878E878E859F859B8B8A8B8A899B89C8
:102430000197F1F79B8B8A8B40E065E082E00E9478
:10244000E90519821BC08981282F30E088E190E0DE
:1024500002C0959587952A95E2F7282F21708981EA
:10246000882F90E088589F4FFC018081422F682F71
:1024700082E00E94E90589818F5F898389818430A8
:1024800010F341E065E082E00E94E90580E090E021
:10249000A0E8BFE38A839B83AC83BD8320E030E068
:1024A0004AE753E46A817B818C819D810E94681890
:1024B000DC01CB018C8B9D8BAE8BBF8B20E030E0A1
:1024C00040E85FE36C897D898E899F890E940B17A4
:1024D00088232CF481E090E0998F888F3FC020E022
:1024E0003FEF4FE757E46C897D898E899F890E9471
:1024F000631818164CF520E030E040E251E46A81A0
:102500007B818C819D810E946818DC01CB01BC011C
:10251000CD010E948217DC01CB01998F888F0FC0FB
:1025200089E190E09B8F8A8F8A8D9B8D0197F1F7CF
:102530009B8F8A8F888D998D0197998F888F888D31
:10254000998D892B69F714C06C897D898E899F8943
:102550000E948217DC01CB01998F888F888D998D1D
:102560009D8F8C8F8C8D9D8D0197F1F79D8F8C8F1A
:1025700040E065E082E00E94E90500006D960FB63C
:10258000F894DEBF0FBECDBFDF91CF910895CF93FA
:10259000DF93CDB7DEB76D970FB6F894DEBF0FBEF1
:1025A000CDBF198240E064E082E00E94E905198213
:1025B0001EC08981882F90E09C012C5F3F4F8CE1E9
:1025C00090E002C0959587952A95E2F7282F217013
:1025D0008981882F90E088589F4FFC018081422F8D
:1025E000682F82E00E94E90589818F5F8983898154
:1025F0008430F8F241E065E082E00E94E90580E085
:1026000090E0A0E8BFE38E839F83A887B98720E08E
:1026100030E04AE753E46E817F81888599850E9486
:102620006818DC01CB018A879B87AC87BD8720E0D7
:1026300030E040E85FE36A857B858C859D850E945C
:102640000B1788232CF481E090E09F878E873FC092
:1026500020E03FEF4FE757E46A857B858C859D85B9
:102660000E94631818164CF520E030E040E251E477
:102670006E817F81888599850E946818DC01CB0175
:10268000BC01CD010E948217DC01CB019F878E87A0
:102690000FC089E190E0998B888B8889998901978F
:1026A000F1F7998B888B8E859F8501979F878E8701
:1026B0008E859F85892B69F714C06A857B858C85FB
:1026C0009D850E948217DC01CB019F878E878E85B6
:1026D0009F859B8B8A8B8A899B890197F1F79B8BBE
:1026E0008A8B40E065E082E00E94E90519821BC008
:1026F0008981282F30E08CE190E002C09595879584
:102700002A95E2F7282F21708981882F90E0885838
:102710009F4FFC018081422F682F82E00E94E905D3
:1027200089818F5F89838981843010F341E065E07E
:1027300082E00E94E90580E090E0A0E8BFE38A83A0
:102740009B83AC83BD8320E030E04AE753E46A8199
:102750007B818C819D810E946818DC01CB018C8B70
:102760009D8BAE8BBF8B20E030E040E85FE36C894F
:102770007D898E899F890E940B1788232CF481E024
:1027800090E0998F888F3FC020E03FEF4FE757E4FC
:102790006C897D898E899F890E94631818164CF573
:1027A00020E030E040E251E46A817B818C819D81B0
:1027B0000E946818DC01CB01BC01CD010E94821788
:1027C000DC01CB01998F888F0FC089E190E09B8F4E
:1027D0008A8F8A8D9B8D0197F1F79B8F8A8F888DC9
:1027E000998D0197998F888F888D998D892B69F79D
:1027F00014C06C897D898E899F890E948217DC01B3
:10280000CB01998F888F888D998D9D8F8C8F8C8D22
:102810009D8D0197F1F79D8F8C8F40E065E082E000
:102820000E94E90500006D960FB6F894DEBF0FBE5A
:10283000CDBFDF91CF9108950F931F93CF93DF9377
:10284000CDB7DEB760970FB6F894DEBF0FBECDBF31
:102850006D877E878F87988B2BE0CE010296FC01D7
:10286000322F11923A95E9F719828D859E85AF85B1
:10287000B889BB230CF041C08DE20E94C60E8D8545
:102880009E85AF85B889B095A095909581959F4F0D
:10289000AF4FBF4F8D879E87AF87B88B2EC0898182
:1028A000082F880F110B8D859E85AF85B8892AE08A
:1028B00030E040E050E0BC01CD010E94D216DC01C6
:1028C000CB01282FCE010296800F911FFC0120839F
:1028D0008D859E85AF85B8892AE030E040E050E0E4
:1028E000BC01CD010E94D216DA01C9018D879E87F5
:1028F000AF87B88B89818F5F89838D859E85AF85F2
:10290000B889892B8A2B8B2B51F689818150898339
:1029100011C08981082E000C990B9E012E5F3F4F3C
:10292000820F931FFC018081805D0E94C60E898109
:10293000815089838981882364F7000060960FB6EF
:10294000F894DEBF0FBECDBFDF91CF911F910F91E5
:102950000895CF93DF9300D0CDB7DEB79A838983F4
:102960000BC089819A819C012F5F3F4F3A83298355
:10297000FC0180810E94C60E89819A81FC018081C0
:10298000882379F700000F900F90DF91CF91089581
:10299000CF93DF9300D01F92CDB7DEB78A836B83CE
:1029A00019828A81882F90E08130910519F0029771
:1029B00021F007C08B81898304C08B81805C89836F
:1029C0000000898180580E946F0D00000F900F90C9
:1029D0000F90DF91CF910895CF93DF9300D000D077
:1029E000CDB7DEB79B838A836C838C81882F90E080
:1029F0000796880F880F880F0E946F0D1982198221
:102A00000EC08981882F90E02A813B81820F931F1D
:102A1000FC0180810E94C60E89818F5F8983898134
:102A2000883078F300000F900F900F900F90DF9197
:102A3000CF910895CF93DF93CDB7DEB740E060E04C
:102A400083E00E94860540E061E083E00E94860505
:102A500040E063E081E00E9486050000DF91CF91B5
:102A60000895CF93DF9300D0CDB7DEB789836A8313
:102A70008981882F90E08130910581F08230910525
:102A8000C1F0892B09F541E060E083E00E94E9058F
:102A900040E061E083E00E94E90516C040E060E0AC
:102AA00083E00E94E90541E061E083E00E94E905DE
:102AB0000BC040E060E083E00E94E90540E061E097
:102AC00083E00E94E90500008A810E945203000011
:102AD0000F900F90DF91CF910895CF93DF93CDB7F3
:102AE000DEB740E065E081E00E9486050000DF91EE
:102AF000CF910895CF93DF93CDB7DEB741E065E086
:102B000081E00E94E9050000DF91CF910895CF9305
:102B1000DF93CDB7DEB741E065E081E00E94E905D3
:102B20000000DF91CF910895CF93DF93CDB7DEB74B
:102B30004FEF62E083E00E9486050000DF91CF91B5
:102B40000895CF93DF93CDB7DEB762E083E00E94B4
:102B50007606DF91CF910895CF93DF93CDB7DEB79F
:102B60000E94C9070E942A0363E080E00E941904C2
:102B70000E94EC060E946D150E941A150E946E0AB2
:102B800060E081E00E94C8148DE790E00E94A914E3
:102B900060E082E00E94C81484E890E00E94A914DA
:102BA00080E00E9418079C0144E6429FC001439FB9
:102BB000900D11242FEF33E0B9010E949C16CB0138
:102BC0008093A4000E94F4089093A6008093A5002F
:102BD00069E081E00E94C8148EE890E00E94A91488
:102BE00069E081E00E94C8148091A400882F90E0E1
:102BF000A0E0B0E0BC01CD010E941C146DE081E0BA
:102C00000E94C81483E990E00E94A9146AE082E05F
:102C10000E94C8148EE890E00E94A9146AE082E045
:102C20000E94C8148091A5009091A600CC01A0E05C
:102C3000B0E0BC01CD010E941C146DE082E00E9456
:102C4000C81488E990E00E94A91480917C00882330
:102C500009F448C08091A5009091A600449738F4EB
:102C600060E082E00E9431150E947A1599CF809130
:102C7000A5009091A600C29798F49091A4008DECC5
:102C8000989F812D1124869586958093A700809129
:102C9000A700682F80E00E9431150E94871580CF21
:102CA0008091A5009091A6008436910570F48091E2
:102CB000A40086958093A7008091A700682F80E0EC
:102CC0000E9431150E9487156BCF8091A4008093DC
:102CD000A7008091A700682F80E00E9431150E9414
:102CE00087155ECF8091A4008093A7008091A700F4
:102CF000682F80E00E9431150E94871551CF1F92E6
:102D00000F9200905F000F9211248F939F93CF93A7
:102D1000DF93CDB7DEB790917C0081E08927809367
:102D20007C000000DF91CF919F918F910F900092D6
:102D30005F000F901F901895AA1BBB1B51E107C0A5
:102D4000AA1FBB1FA617B70710F0A61BB70B881F3B
:102D5000991F5A95A9F780959095BC01CD010895CA
:102D6000A1E21A2EAA1BBB1BFD010DC0AA1FBB1F8F
:102D7000EE1FFF1FA217B307E407F50720F0A21B01
:102D8000B30BE40BF50B661F771F881F991F1A946E
:102D900069F760957095809590959B01AC01BD0198
:102DA000CF010895052E97FB1EF400940E94E916AA
:102DB00057FD07D00E94B01607FC03D04EF40C94C8
:102DC000E91650954095309521953F4F4F4F5F4FF5
:102DD000089590958095709561957F4F8F4F9F4F87
:102DE00008950E94FC16A59F900DB49F900DA49F7E
:102DF000800D911D11240895A29FB001B39FC001C1
:102E0000A39F700D811D1124911DB29F700D811D16
:102E10001124911D08950E94EE1708F481E0089591
:102E20000E9424170C9429180E94221858F00E941E
:102E30001B1840F029F45F3F29F00C94121851112F
:102E40000C945D180C9418180E943A1868F3992392
:102E5000B1F3552391F3951B550BBB27AA27621796
:102E60007307840738F09F5F5F4F220F331F441FA3
:102E7000AA1FA9F335D00E2E3AF0E0E832D09150D7
:102E80005040E695001CCAF72BD0FE2F29D0660FC4
:102E9000771F881FBB1F261737074807AB07B0E807
:102EA00009F0BB0B802DBF01FF2793585F4F3AF00D
:102EB0009E3F510578F00C9412180C945D185F3FFA
:102EC000E4F3983ED4F3869577956795B795F79593
:102ED0009F5FC9F7880F911D9695879597F908957B
:102EE000E1E0660F771F881FBB1F62177307840717
:102EF000BA0720F0621B730B840BBA0BEE1F88F726
:102F0000E09508950E94421888F09F5798F0B92FD5
:102F10009927B751B0F0E1F0660F771F881F991F0E
:102F20001AF0BA95C9F714C0B13091F00E945C183C
:102F3000B1E008950C945C18672F782F8827B85F4C
:102F400039F0B93FCCF3869577956795B395D9F766
:102F50003EF490958095709561957F4F8F4F9F4F70
:102F60000895E89409C097FB3EF49095809570957C
:102F700061957F4F8F4F9F4F9923A9F0F92F96E9C5
:102F8000BB279395F695879577956795B795F1113A
:102F9000F8CFFAF4BB0F11F460FF1BC06F5F7F4FD7
:102FA0008F4F9F4F16C0882311F096E911C07723E9
:102FB00021F09EE8872F762F05C0662371F096E8F2
:102FC000862F70E060E02AF09A95660F771F881FC1
:102FD000DAF7880F9695879597F90895990F000865
:102FE000550FAA0BE0E8FEEF16161706E807F907DB
:102FF000C0F012161306E407F50798F0621B730B76
:10300000840B950B39F40A2661F0232B242B252BF6
:1030100021F408950A2609F4A140A6958FEF811D99
:10302000811D089597F99F6780E870E060E008953A
:103030009FEF80EC089500240A94161617061806D0
:103040000906089500240A941216130614060506AC
:103050000895092E0394000C11F4882352F0BB0F3D
:1030600040F4BF2B11F460FF04C06F5F7F4F8F4FA0
:103070009F4F089557FD9058440F551F59F05F3FDB
:1030800071F04795880F97FB991F61F09F3F79F08A
:1030900087950895121613061406551FF2CF46950C
:1030A000F1DF08C0161617061806991FF1CF86958E
:1030B0007105610508940895E894BB276627772772
:1030C000CB0197F908950E94EE1708F48FEF089549
:1030D0000E947B180C9429180E941B1838F00E943B
:1030E000221820F0952311F00C9412180C94181843
:1030F00011240C945D180E943A1870F3959FC1F347
:10310000950F50E0551F629FF001729FBB27F00D95
:10311000B11D639FAA27F00DB11DAA1F649F6627EA
:10312000B00DA11D661F829F2227B00DA11D621F39
:10313000739FB00DA11D621F839FA00D611D221FF3
:10314000749F3327A00D611D231F849F600D211DD7
:10315000822F762F6A2F11249F5750409AF0F1F05A
:1031600088234AF0EE0FFF1FBB1F661F771F881FC3
:1031700091505040A9F79E3F510580F00C941218D1
:103180000C945D185F3FE4F3983ED4F386957795F1
:103190006795B795F795E7959F5FC1F7FE2B880F69
:0E31A000911D9695879597F90895F894FFCFA5
:1031AE003A003700340031003B0038003500320061
:1031BE0039003600330030000001020301737065E0
:1031CE0065643A0064697374616E63653A00202029
:0C31DE002020006B6D2F6800636D000066
:00000001FF
