:020000040000FA
:100000000C9462000C948A000C948A000C948A0070
:100010000C948A000C948A000C948A000C948A0038
:100020000C948A000C948A000C948A000C948A0028
:100030000C948A000C948A000C948A000C948A0018
:100040000C94FC020C948A000C946C030C944603F0
:100050000C948A000C948A000C948A000C948A00F8
:100060000C948A000C948A000000000024002700F1
:100070002A0000000000250028002B0000000000DE
:1000800023002600290004040404040404040202DA
:100090000202020203030303030301020408102007
:1000A0004080010204081020010204081020000012
:1000B0000008000201000003040700000000000027
:1000C00000003B0611241FBECFEFD8E0DEBFCDBF3E
:1000D00011E0A0E0B1E0E0E9FFE002C005900D9280
:1000E000A63CB107D9F722E0A6ECB1E001C01D9211
:1000F000AC36B207E1F710E0C2E6D0E004C02197C9
:10010000FE010E94C007C136D107C9F70E94E30370
:100110000C94C6070C940000833081F028F48130E1
:1001200099F08230A9F008958730A9F08830C9F09D
:100130008430B1F4809180008F7D03C08091800075
:100140008F7780938000089584B58F7784BD08955C
:1001500084B58F7DFBCF8091B0008F778093B00006
:1001600008958091B0008F7DF9CFCF93DF93282F32
:1001700030E0F901E255FF4F8491F901E656FF4F57
:10018000D491F901EA57FF4FC491CC23A1F081111A
:100190000E948C00EC2FF0E0EE0FFF1FE458FF4FA1
:1001A000A591B491EC91ED2381E090E009F480E019
:1001B000DF91CF91089580E090E0FACF1F93CF9325
:1001C000DF93282F30E0F901E255FF4F8491F901C8
:1001D000E656FF4FD491F901EA57FF4FC491CC2363
:1001E000A9F0162F81110E948C00EC2FF0E0EE0F89
:1001F000FF1FEE58FF4FA591B4918FB7F894EC9183
:10020000111108C0D095DE23DC938FBFDF91CF9111
:100210001F910895DE2BF8CFCF93DF9390E0FC0180
:10022000E656FF4F24918A579F4FFC018491882303
:10023000D1F090E0880F991FFC01E859FF4FA5917C
:10024000B491FC01EE58FF4FC591D49161110EC0DD
:100250009FB7F8948C91E22FE0958E238C932881A0
:10026000E223E8839FBFDF91CF9108958FB7F89481
:10027000EC91E22BEC938FBFF6CF3FB7F8948091CF
:10028000CB019091CC01A091CD01B091CE0126B5CA
:10029000A89B05C02F3F19F00196A11DB11D3FBFBE
:1002A000BA2FA92F982F8827BC01CD01620F711D8D
:1002B000811D911D42E0660F771F881F991F4A9587
:1002C000D1F708958F929F92AF92BF92CF92DF9213
:1002D000EF92FF924B015C010E943D016B017C019A
:1002E0000E943D016C197D098E099F09683E73408B
:1002F00081059105A8F321E0821A9108A108B108AF
:1003000088EEC80E83E0D81EE11CF11C8114910414
:10031000A104B10429F7FF90EF90DF90CF90BF9038
:10032000AF909F908F900895AF92BF92CF92DF923F
:10033000EF92FF920F931F93CF93DF936C017B019A
:100340008B01040F151FEB015E01AE18BF08C0172B
:10035000D10759F06991D601ED91FC910190F0819E
:10036000E02DC6010995892B79F7C501DF91CF9161
:100370001F910F91FF90EF90DF90CF90BF90AF90C3
:100380000895FC01538D448D252F30E0842F90E09B
:10039000821B930B541710F0CF9608950197089580
:1003A000FC01918D828D981761F0A28DAE0FBF2F49
:1003B000B11D5D968C91928D9F5F9F73928F90E09F
:1003C00008958FEF9FEF0895FC01918D828D98170E
:1003D00031F0828DE80FF11D858D90E008958FEF4B
:1003E0009FEF0895FC01918D228D892F90E0805C14
:1003F0009F4F821B91098F73992708958FEC91E08D
:100400000E94F20121E0892B09F420E0822F089557
:1004100080E090E0892B29F00E94FE0181110C946C
:1004200000000895FC01A48DA80FB92FB11DA35A97
:10043000BF4F2C91848D90E001968F739927848F04
:10044000A689B7892C93A089B1898C918370806427
:100450008C93938D848D981306C00288F389E02DC8
:1004600080818F7D80830895EF92FF920F931F9379
:10047000CF93DF93EC0181E0888F9B8D8C8D981357
:100480001AC0E889F989808185FF15C09FB7F89463
:10049000EE89FF896083E889F989808183708064AF
:1004A00080839FBF81E090E0DF91CF911F910F91FA
:1004B000FF90EF900895F62E0B8D10E00F5F1F4F09
:1004C0000F731127E02E8C8D8E110CC00FB607FC18
:1004D000FACFE889F989808185FFF5CFCE010E94A6
:1004E0001202F1CFEB8DEC0FFD2FF11DE35AFF4F00
:1004F000F0829FB7F8940B8FEA89FB898081806234
:10050000CFCFCF93DF93EC01888D8823B9F0AA89F0
:10051000BB89E889F9898C9185FD03C0808186FDBE
:100520000DC00FB607FCF7CF8C9185FFF2CF80810D
:1005300085FFEDCFCE010E941202E9CFDF91CF916E
:10054000089560E08DE00E94DE0060E08CE00E9493
:10055000DE0060E08BE00E94DE0060E08AE00C9448
:10056000DE0060E08DE00E94DE0060E08CE00E9432
:10057000DE0061E08BE00E94DE0060E08AE00C9427
:10058000DE0061E08DE00E94DE0060E08CE00E9411
:10059000DE0060E08BE00E94DE0060E08AE00C9408
:1005A000DE0061E08DE00E94DE0060E08CE00E94F1
:1005B000DE0060E08BE00E94DE0061E08AE00C94E7
:1005C000DE00FC0101900020E9F73197AF01481BE4
:1005D000590BBC018FEC91E00C949401CF93DF9305
:1005E0000E94E102EC0182E191E00E94E1028C0FA5
:1005F0009D1FDF91CF9108951F920F920FB60F921A
:1006000011242F933F938F939F93AF93BF93809128
:10061000C7019091C801A091C901B091CA01309160
:10062000C60123E0230F2D3758F50196A11DB11DFA
:100630002093C6018093C7019093C801A093C9017C
:10064000B093CA018091CB019091CC01A091CD01D2
:10065000B091CE010196A11DB11D8093CB01909365
:10066000CC01A093CD01B093CE01BF91AF919F91EA
:100670008F913F912F910F900FBE0F901F90189563
:1006800026E8230F0296A11DB11DD2CF1F920F9213
:100690000FB60F9211242F933F934F935F936F9355
:1006A0007F938F939F93AF93BF93EF93FF938FECC1
:1006B00091E00E941202FF91EF91BF91AF919F9143
:1006C0008F917F916F915F914F913F912F910F90FB
:1006D0000FBE0F901F9018951F920F920FB60F929A
:1006E00011242F938F939F93EF93FF93E091DF015A
:1006F000F091E0018081E091E501F091E60182FD59
:100700001BC090818091E8018F5F8F732091E90178
:10071000821741F0E091E801F0E0E153FE4F958F40
:100720008093E801FF91EF919F918F912F910F900E
:100730000FBE0F901F9018958081F4CFCF92DF925B
:10074000EF92FF920F931F93E82FF92F05C00150EE
:1007500011092109310961F1908196239417B9F3A8
:1007600005C0015011092109310911F19081962329
:100770009413F7CFC12CD12CE12CF12C0AC08FEFB0
:10078000C81AD80AE80AF80A0C151D052E053F05F7
:1007900079F080818623841791F36C2D7D2D8E2D29
:1007A0009F2D1F910F91FF90EF90DF90CF900895B4
:1007B00060E070E080E090E01F910F91FF90EF907B
:1007C000DF90CF900895CF93DF93CDB7DEB7A19799
:1007D0000FB6F894DEBF0FBECDBF789484B58260AB
:1007E00084BD84B5816084BD85B5826085BD85B5D5
:1007F000816085BD80916E00816080936E00109253
:1008000081008091810082608093810080918100CD
:10081000816080938100809180008160809380005E
:100820008091B10084608093B1008091B0008160BC
:100830008093B00080917A00846080937A008091E8
:100840007A00826080937A0080917A008160809340
:100850007A0080917A00806880937A001092C100BB
:10086000E091DF01F091E00182E08083E091DB0123
:10087000F091DC011082E091DD01F091DE018FEC5E
:1008800080831092E701E091E301F091E40186E0BA
:100890008083E091E101F091E201808180618083B9
:1008A000E091E101F091E201808188608083E09134
:1008B000E101F091E201808180688083E091E101B3
:1008C000F091E20180818F7D808361E086E00E946B
:1008D0000C0160E089E00E940C0160E088E00E9469
:1008E0000C0160E087E00E940C0161E08DE00E9455
:1008F0000C0161E08CE00E940C0161E08BE00E9441
:100900000C0161E08AE00E940C0161E084E00E9439
:100910000C0160E085E00E940C019AE0892E912C88
:10092000A12CB12C89E00E94B5001C0188E00E9436
:10093000B5006C0187E00E94B5007C0160E084E0B6
:100940000E94DE0062E070E080E090E00E946201C0
:1009500061E084E00E94DE0083E290E00197F1F71D
:1009600060E084E00E94DE00EFE9F0E06491EBE8F3
:10097000F0E08491E82FF0E0EE0FFF1FE458FF4F06
:100980008591949100E412E42FE030E0462F0E941C
:100990009E03611571058105910529F06F5F7F4FF9
:1009A0008F4F9F4F9F70072E000C880B990B0E9452
:1009B00012072CE53FE844E652E40E9468060E94D4
:1009C000DA062B01643071050CF432C160E086E078
:1009D0000E94DE002A94232809F048C00E94D10218
:1009E00060ED77E080E090E00E9462010E94A10249
:1009F00068EC70E080E090E00E9462010E94B10229
:100A000064EF71E080E090E00E9462010E94A10228
:100A100068EC70E080E090E00E9462010E94D102E8
:100A200068EE73E080E090E00E9462010E94A10203
:100A300068EC70E080E090E00E9462010E94C102D8
:100A400064EF71E080E090E00E9462010E94A102E8
:100A500068EC70E080E090E00E94620185E191E046
:100A60000E94EE0280E391E00E94EE02CA94CD283B
:100A700009F048C00E94D10260EA7FE080E090E087
:100A80000E9462010E94A10268EC70E080E090E0A8
:100A90000E9462010E94B10264EF71E080E090E088
:100AA0000E9462010E94A10268EC70E080E090E088
:100AB0000E9462010E94D10268EE73E080E090E043
:100AC0000E9462010E94A10268EC70E080E090E068
:100AD0000E9462010E94C10264EF71E080E090E038
:100AE0000E9462010E94A10268EC70E080E090E048
:100AF0000E94620181E591E00E94EE0280E391E0B4
:100B00000E94EE02EA94EF2809F048C00E94D10248
:100B100060E777E180E090E00E9462010E94A1021C
:100B200068EC70E080E090E00E9462010E94B102F7
:100B300064EF71E080E090E00E9462010E94A102F7
:100B400068EC70E080E090E00E9462010E94D102B7
:100B500068EE73E080E090E00E9462010E94A102D2
:100B600068EC70E080E090E00E9462010E94C102A7
:100B700064EF71E080E090E00E9462010E94A102B7
:100B800068EC70E080E090E00E9462018FE691E006
:100B90000E94EE0280E391E00E94EE0286EA91E07C
:100BA0000E94E102052C000C6608770877FE4DC014
:100BB0006DE28FEC91E00E94340222273327A901D5
:100BC000241935094609570919A2CE0181967C01DD
:100BD000CA01B901A50194010E949E07605DF70159
:100BE00062937F01211531054105510589F7E11413
:100BF000F10419F0C7010E94E10282E191E00E9434
:100C0000E10282EB91E00E94EE026AEF70E080E088
:100C100090E00E94620180E090E0892B09F482CE8E
:100C20000E94FE01882309F47DCE0E9400007ACE46
:100C30000E94A10261E086E00E94DE008FE891E060
:100C40000E94EE0289E391E0A7CFA301920119A2CD
:100C5000CE0181967C01CA01B901A50194010E94CF
:100C60009E07605DF70162937F0121153105410503
:100C7000510589F7BCCFEFECF1E01382128288EEC8
:100C800093E0A0E0B0E084839583A683B78384E0FB
:100C900091E09183808385EC90E09587848784EC54
:100CA00090E09787868780EC90E0918B808B81EC39
:100CB00090E0938B828B82EC90E0958B848B86EC1A
:100CC00090E0978B868B118E128E138E148E089562
:100CD0000E947C060C9464070E945D0758F00E94F5
:100CE000560740F029F45F3F29F00C944D0751114D
:100CF0000C9498070C9453070E94750768F3992386
:100D0000B1F3552391F3951B550BBB27AA27621707
:100D10007307840738F09F5F5F4F220F331F441F14
:100D2000AA1FA9F335D00E2E3AF0E0E832D0915048
:100D30005040E695001CCAF72BD0FE2F29D0660F35
:100D4000771F881FBB1F261737074807AB07B0E878
:100D500009F0BB0B802DBF01FF2793585F4F3AF07E
:100D60009E3F510578F00C944D070C9498075F3F17
:100D7000E4F3983ED4F3869577956795B795F79504
:100D80009F5FC9F7880F911D9695879597F90895EC
:100D9000E1E0660F771F881FBB1F62177307840788
:100DA000BA0720F0621B730B840BBA0BEE1F88F797
:100DB000E09508950E94E1066894B1110C9498079B
:100DC00008950E947D0788F09F5798F0B92F9927C2
:100DD000B751B0F0E1F0660F771F881F991F1AF026
:100DE000BA95C9F714C0B13091F00E949707B1E0ED
:100DF00008950C949707672F782F8827B85F39F0EC
:100E0000B93FCCF3869577956795B395D9F73EF4BE
:100E100090958095709561957F4F8F4F9F4F089566
:100E2000E89409C097FB3EF4909580957095619584
:100E30007F4F8F4F9F4F9923A9F0F92F96E9BB273A
:100E40009395F695879577956795B795F111F8CFB6
:100E5000FAF4BB0F11F460FF1BC06F5F7F4F8F4F21
:100E60009F4F16C0882311F096E911C0772321F017
:100E70009EE8872F762F05C0662371F096E8862FAF
:100E800070E060E02AF09A95660F771F881FDAF706
:100E9000880F9695879597F9089597F99F6780E849
:100EA00070E060E008959FEF80EC089500240A94BC
:100EB0001616170618060906089500240A94121635
:100EC0001306140605060895092E0394000C11F468
:100ED000882352F0BB0F40F4BF2B11F460FF04C015
:100EE0006F5F7F4F8F4F9F4F089557FD9058440F6E
:100EF000551F59F05F3F71F04795880F97FB991F79
:100F000061F09F3F79F08795089512161306140635
:100F1000551FF2CF4695F1DF08C0161617061806C2
:100F2000991FF1CF86957105610508940895E8949D
:100F3000BB2766277727CB0197F90895A1E21A2EE0
:100F4000AA1BBB1BFD010DC0AA1FBB1FEE1FFF1F6D
:100F5000A217B307E407F50720F0A21BB30BE40BBD
:100F6000F50B661F771F881F991F1A9469F7609504
:100F70007095809590959B01AC01BD01CF010895BE
:100F8000EE0FFF1F0590F491E02D0994F894FFCF28
:100F90000000000034029401C1018102F201D0017D
:100FA000E4010D0A00203D3E20596F752041726515
:100FB00020496E20585F72617920526F6F6D2E004C
:100FC0003D3D3D3D3D3D3D3D3D3D3D3D3D3D3D3D51
:100FD0003D3D3D3D3D3D3D3D3D3D3D3D3D3D3D3D41
:100FE00000203D3E20596F752041726520496E20DA
:100FF000706861726D61637920526F6F6D2E002091
:101000003D3E20596F752041726520496E206C610C
:10101000626F7261746F727920526F6F6D2E002A49
:1010200020536F6D65207468696E672057726F6E0C
:1010300067212121210044697374616E6365203A40
:1010400020002A2A2A2A2A2A2A2A2A2A2A2A2A2A34
:061050002A2A2A2A0000F2
:107E0000112484B714BE81FFF0D085E080938100F7
:107E100082E08093C00088E18093C10086E0809377
:107E2000C20080E18093C4008EE0C9D0259A86E02C
:107E300020E33CEF91E0309385002093840096BBD3
:107E4000B09BFECF1D9AA8958150A9F7CC24DD24C4
:107E500088248394B5E0AB2EA1E19A2EF3E0BF2EE7
:107E6000A2D0813461F49FD0082FAFD0023811F036
:107E7000013811F484E001C083E08DD089C08234E0
:107E800011F484E103C0853419F485E0A6D080C0E4
:107E9000853579F488D0E82EFF2485D0082F10E0AE
:107EA000102F00270E291F29000F111F8ED06801E7
:107EB0006FC0863521F484E090D080E0DECF843638
:107EC00009F040C070D06FD0082F6DD080E0C81688
:107ED00080E7D80618F4F601B7BEE895C0E0D1E017
:107EE00062D089930C17E1F7F0E0CF16F0E7DF06D8
:107EF00018F0F601B7BEE89568D007B600FCFDCFD4
:107F0000A601A0E0B1E02C9130E011968C91119780
:107F100090E0982F8827822B932B1296FA010C0160
:107F200087BEE89511244E5F5F4FF1E0A038BF0790
:107F300051F7F601A7BEE89507B600FCFDCF97BE46
:107F4000E89526C08437B1F42ED02DD0F82E2BD052
:107F50003CD0F601EF2C8F010F5F1F4F84911BD097
:107F6000EA94F801C1F70894C11CD11CFA94CF0C13
:107F7000D11C0EC0853739F428D08EE10CD085E9AC
:107F80000AD08FE07ACF813511F488E018D01DD067
:107F900080E101D065CF982F8091C00085FFFCCF94
:107FA0009093C60008958091C00087FFFCCF809118
:107FB000C00084FD01C0A8958091C6000895E0E648
:107FC000F0E098E1908380830895EDDF803219F02E
:107FD00088E0F5DFFFCF84E1DECF1F93182FE3DFCA
:107FE0001150E9F7F2DF1F91089580E0E8DFEE27F6
:047FF000FF270994CA
:027FFE00040479
:00000001FF
